{
  "contractName": "ETHFlexClub",
  "abi": [
    {
      "inputs": [
        {
          "internalType": "contract IVerifier",
          "name": "_verifier",
          "type": "address"
        },
        {
          "internalType": "contract IHasher",
          "name": "_hasher",
          "type": "address"
        },
        {
          "internalType": "uint256",
          "name": "_denomination",
          "type": "uint256"
        },
        {
          "internalType": "uint32",
          "name": "_merkleTreeHeight",
          "type": "uint32"
        },
        {
          "internalType": "address",
          "name": "_flexNFT",
          "type": "address"
        },
        {
          "internalType": "uint256",
          "name": "_minimumWaitBlocks",
          "type": "uint256"
        }
      ],
      "stateMutability": "nonpayable",
      "type": "constructor"
    },
    {
      "anonymous": false,
      "inputs": [
        {
          "indexed": true,
          "internalType": "bytes32",
          "name": "commitment",
          "type": "bytes32"
        },
        {
          "indexed": false,
          "internalType": "uint32",
          "name": "leafIndex",
          "type": "uint32"
        },
        {
          "indexed": false,
          "internalType": "uint256",
          "name": "timestamp",
          "type": "uint256"
        }
      ],
      "name": "Deposit",
      "type": "event"
    },
    {
      "anonymous": false,
      "inputs": [
        {
          "indexed": false,
          "internalType": "address",
          "name": "to",
          "type": "address"
        },
        {
          "indexed": false,
          "internalType": "bytes32",
          "name": "nullifierHash",
          "type": "bytes32"
        },
        {
          "indexed": true,
          "internalType": "address",
          "name": "relayer",
          "type": "address"
        },
        {
          "indexed": false,
          "internalType": "uint256",
          "name": "fee",
          "type": "uint256"
        }
      ],
      "name": "NFTMint",
      "type": "event"
    },
    {
      "anonymous": false,
      "inputs": [
        {
          "indexed": false,
          "internalType": "address",
          "name": "to",
          "type": "address"
        }
      ],
      "name": "Withdrawal",
      "type": "event"
    },
    {
      "inputs": [],
      "name": "FIELD_SIZE",
      "outputs": [
        {
          "internalType": "uint256",
          "name": "",
          "type": "uint256"
        }
      ],
      "stateMutability": "view",
      "type": "function",
      "constant": true
    },
    {
      "inputs": [],
      "name": "MINIMUM_WAIT_BLOCKS",
      "outputs": [
        {
          "internalType": "uint256",
          "name": "",
          "type": "uint256"
        }
      ],
      "stateMutability": "view",
      "type": "function",
      "constant": true
    },
    {
      "inputs": [],
      "name": "ROOT_HISTORY_SIZE",
      "outputs": [
        {
          "internalType": "uint32",
          "name": "",
          "type": "uint32"
        }
      ],
      "stateMutability": "view",
      "type": "function",
      "constant": true
    },
    {
      "inputs": [],
      "name": "ZERO_VALUE",
      "outputs": [
        {
          "internalType": "uint256",
          "name": "",
          "type": "uint256"
        }
      ],
      "stateMutability": "view",
      "type": "function",
      "constant": true
    },
    {
      "inputs": [
        {
          "internalType": "bytes32",
          "name": "",
          "type": "bytes32"
        }
      ],
      "name": "commitments",
      "outputs": [
        {
          "internalType": "bool",
          "name": "",
          "type": "bool"
        }
      ],
      "stateMutability": "view",
      "type": "function",
      "constant": true
    },
    {
      "inputs": [],
      "name": "currentRootIndex",
      "outputs": [
        {
          "internalType": "uint32",
          "name": "",
          "type": "uint32"
        }
      ],
      "stateMutability": "view",
      "type": "function",
      "constant": true
    },
    {
      "inputs": [],
      "name": "denomination",
      "outputs": [
        {
          "internalType": "uint256",
          "name": "",
          "type": "uint256"
        }
      ],
      "stateMutability": "view",
      "type": "function",
      "constant": true
    },
    {
      "inputs": [
        {
          "internalType": "bytes32",
          "name": "_commitment",
          "type": "bytes32"
        }
      ],
      "name": "deposit",
      "outputs": [],
      "stateMutability": "payable",
      "type": "function",
      "payable": true
    },
    {
      "inputs": [
        {
          "internalType": "uint256",
          "name": "",
          "type": "uint256"
        }
      ],
      "name": "filledSubtrees",
      "outputs": [
        {
          "internalType": "bytes32",
          "name": "",
          "type": "bytes32"
        }
      ],
      "stateMutability": "view",
      "type": "function",
      "constant": true
    },
    {
      "inputs": [],
      "name": "flexNFTContract",
      "outputs": [
        {
          "internalType": "address",
          "name": "",
          "type": "address"
        }
      ],
      "stateMutability": "view",
      "type": "function",
      "constant": true
    },
    {
      "inputs": [],
      "name": "getLastRoot",
      "outputs": [
        {
          "internalType": "bytes32",
          "name": "",
          "type": "bytes32"
        }
      ],
      "stateMutability": "view",
      "type": "function",
      "constant": true
    },
    {
      "inputs": [
        {
          "internalType": "contract IHasher",
          "name": "_hasher",
          "type": "address"
        },
        {
          "internalType": "bytes32",
          "name": "_left",
          "type": "bytes32"
        },
        {
          "internalType": "bytes32",
          "name": "_right",
          "type": "bytes32"
        }
      ],
      "name": "hashLeftRight",
      "outputs": [
        {
          "internalType": "bytes32",
          "name": "",
          "type": "bytes32"
        }
      ],
      "stateMutability": "pure",
      "type": "function",
      "constant": true
    },
    {
      "inputs": [],
      "name": "hasher",
      "outputs": [
        {
          "internalType": "contract IHasher",
          "name": "",
          "type": "address"
        }
      ],
      "stateMutability": "view",
      "type": "function",
      "constant": true
    },
    {
      "inputs": [
        {
          "internalType": "bytes32",
          "name": "_root",
          "type": "bytes32"
        }
      ],
      "name": "isKnownRoot",
      "outputs": [
        {
          "internalType": "bool",
          "name": "",
          "type": "bool"
        }
      ],
      "stateMutability": "view",
      "type": "function",
      "constant": true
    },
    {
      "inputs": [
        {
          "internalType": "bytes32",
          "name": "_nullifierHash",
          "type": "bytes32"
        }
      ],
      "name": "isSpent",
      "outputs": [
        {
          "internalType": "bool",
          "name": "",
          "type": "bool"
        }
      ],
      "stateMutability": "view",
      "type": "function",
      "constant": true
    },
    {
      "inputs": [
        {
          "internalType": "bytes32[]",
          "name": "_nullifierHashes",
          "type": "bytes32[]"
        }
      ],
      "name": "isSpentArray",
      "outputs": [
        {
          "internalType": "bool[]",
          "name": "spent",
          "type": "bool[]"
        }
      ],
      "stateMutability": "view",
      "type": "function",
      "constant": true
    },
    {
      "inputs": [],
      "name": "levels",
      "outputs": [
        {
          "internalType": "uint32",
          "name": "",
          "type": "uint32"
        }
      ],
      "stateMutability": "view",
      "type": "function",
      "constant": true
    },
    {
      "inputs": [
        {
          "internalType": "bytes",
          "name": "_proof",
          "type": "bytes"
        },
        {
          "internalType": "bytes32",
          "name": "_root",
          "type": "bytes32"
        },
        {
          "internalType": "bytes32",
          "name": "_nullifierHash",
          "type": "bytes32"
        },
        {
          "internalType": "address payable",
          "name": "_recipient",
          "type": "address"
        },
        {
          "internalType": "address payable",
          "name": "_relayer",
          "type": "address"
        },
        {
          "internalType": "uint256",
          "name": "_fee",
          "type": "uint256"
        },
        {
          "internalType": "uint256",
          "name": "_refund",
          "type": "uint256"
        }
      ],
      "name": "mintNFT",
      "outputs": [],
      "stateMutability": "payable",
      "type": "function",
      "payable": true
    },
    {
      "inputs": [],
      "name": "nextIndex",
      "outputs": [
        {
          "internalType": "uint32",
          "name": "",
          "type": "uint32"
        }
      ],
      "stateMutability": "view",
      "type": "function",
      "constant": true
    },
    {
      "inputs": [
        {
          "internalType": "bytes32",
          "name": "",
          "type": "bytes32"
        }
      ],
      "name": "nullifierHashes",
      "outputs": [
        {
          "internalType": "bool",
          "name": "",
          "type": "bool"
        }
      ],
      "stateMutability": "view",
      "type": "function",
      "constant": true
    },
    {
      "inputs": [
        {
          "internalType": "uint256",
          "name": "",
          "type": "uint256"
        }
      ],
      "name": "roots",
      "outputs": [
        {
          "internalType": "bytes32",
          "name": "",
          "type": "bytes32"
        }
      ],
      "stateMutability": "view",
      "type": "function",
      "constant": true
    },
    {
      "inputs": [],
      "name": "verifier",
      "outputs": [
        {
          "internalType": "contract IVerifier",
          "name": "",
          "type": "address"
        }
      ],
      "stateMutability": "view",
      "type": "function",
      "constant": true
    },
    {
      "inputs": [],
      "name": "withdraw",
      "outputs": [],
      "stateMutability": "nonpayable",
      "type": "function"
    },
    {
      "inputs": [
        {
          "internalType": "uint256",
          "name": "i",
          "type": "uint256"
        }
      ],
      "name": "zeros",
      "outputs": [
        {
          "internalType": "bytes32",
          "name": "",
          "type": "bytes32"
        }
      ],
      "stateMutability": "pure",
      "type": "function",
      "constant": true
    },
    {
      "inputs": [],
      "name": "getFlexNFTAddress",
      "outputs": [
        {
          "internalType": "address",
          "name": "",
          "type": "address"
        }
      ],
      "stateMutability": "view",
      "type": "function",
      "constant": true
    },
    {
      "inputs": [],
      "name": "getBalance",
      "outputs": [
        {
          "internalType": "uint256",
          "name": "",
          "type": "uint256"
        }
      ],
      "stateMutability": "view",
      "type": "function",
      "constant": true
    },
    {
      "inputs": [],
      "name": "getDepositBlock",
      "outputs": [
        {
          "internalType": "uint256",
          "name": "",
          "type": "uint256"
        }
      ],
      "stateMutability": "view",
      "type": "function",
      "constant": true
    },
    {
      "inputs": [],
      "name": "getMinimumWaitBlocks",
      "outputs": [
        {
          "internalType": "uint256",
          "name": "",
          "type": "uint256"
        }
      ],
      "stateMutability": "view",
      "type": "function",
      "constant": true
    }
  ],
  "bytecode": "0x60e0604052600380546001600160401b03191690553480156200002157600080fd5b50604051620024ec380380620024ec833981810160405260c08110156200004757600080fd5b508051602082015160408301516060840151608085015160a090950151939492939192909185858585808363ffffffff8216620000b65760405162461bcd60e51b8152600401808060200182810382526023815260200180620024c96023913960400191505060405180910390fd5b60208263ffffffff161062000112576040805162461bcd60e51b815260206004820152601e60248201527f5f6c6576656c732073686f756c64206265206c657373207468616e2033320000604482015290519081900360640190fd5b6000805463ffffffff191663ffffffff8416178155606082901b6001600160601b0319166080525b8263ffffffff168163ffffffff16101562000183576200016063ffffffff82166200029e565b63ffffffff8216600090815260016020819052604090912091909155016200013a565b506200019963ffffffff6000198401166200029e565b6000805260026020527fac33ff75c19e70fe83507db0d683fd3465c996598dc972688b7ace676c89077b555050600160045581620002095760405162461bcd60e51b8152600401808060200182810382526025815260200180620024a46025913960400191505060405180910390fd5b5060609290921b6001600160601b03191660a05250600555600880546001600160a01b0319166001600160a01b038416179055806200028f576040805162461bcd60e51b815260206004820152601460248201527f7a65726f206d696e207761697420626c6f636b73000000000000000000000000604482015290519081900360640190fd5b60c052506200092c9350505050565b600081620002ce57507f2fe54c60d3acabf3343a35b6eba15db4821b340f76e741e2249685ed4899af6c62000927565b81600114156200030057507f256a6135777eee2fd26f54b8b7037a25439d5235caee224154186d2b8a52e31d62000927565b81600214156200033257507f1151949895e82ab19924de92c40a3d6f7bcb60d92b00504b8199613683f0c20062000927565b81600314156200036457507f20121ee811489ff8d61f09fb89e313f14959a0f28bb428a20dba6b0b068b3bdb62000927565b81600414156200039657507f0a89ca6ffa14cc462cfedb842c30ed221a50a3d6bf022a6a57dc82ab24c157c962000927565b8160051415620003c857507f24ca05c2b5cd42e890d6be94c68d0689f4f21c9cec9c0f13fe41d566dfb5495962000927565b8160061415620003fa57507f1ccb97c932565a92c60156bdba2d08f3bf1377464e025cee765679e604a7315c62000927565b81600714156200042c57507f19156fbd7d1a8bf5cba8909367de1b624534ebab4f0f79e003bccdd1b182bdb462000927565b81600814156200045e57507f261af8c1f0912e465744641409f622d466c3920ac6e5ff37e36604cb11dfff8062000927565b81600914156200048f57507e58459724ff6ca5a1652fcbc3e82b93895cf08e975b19beab3f54c217d1c00762000927565b81600a1415620004c157507f1f04ef20dee48d39984d8eabe768a70eafa6310ad20849d4573c3c40c2ad1e3062000927565b81600b1415620004f357507f1bea3dec5dab51567ce7e200a30f7ba6d4276aeaa53e2686f962a46c66d511e562000927565b81600c14156200052557507f0ee0f941e2da4b9e31c3ca97a40d8fa9ce68d97c084177071b3cb46cd3372f0f62000927565b81600d14156200055757507f1ca9503e8935884501bbaf20be14eb4c46b89772c97b96e3b2ebf3a36a948bbd62000927565b81600e14156200058957507f133a80e30697cd55d8f7d4b0965b7be24057ba5dc3da898ee2187232446cb10862000927565b81600f1415620005bb57507f13e6d8fc88839ed76e182c2a779af5b2c0da9dd18c90427a644f7e148a6253b662000927565b8160101415620005ed57507f1eb16b057a477f4bc8f572ea6bee39561098f78f15bfb3699dcbb7bd8db6185462000927565b81601114156200061f57507f0da2cb16a1ceaabf1c16b838f7a9e3f2a3a3088d9e0a6debaa748114620696ea62000927565b81601214156200065157507f24a3b3d822420b14b5d8cb6c28a574f01e98ea9e940551d2ebd75cee12649f9d62000927565b81601314156200068357507f198622acbd783d1b0d9064105b1fc8e4d8889de95c4c519b3f635809fe6afc0562000927565b8160141415620006b557507f29d7ed391256ccc3ea596c86e933b89ff339d25ea8ddced975ae2fe30b5296d462000927565b8160151415620006e757507f19be59f2f0413ce78c0c3703a3a5451b1d7f39629fa33abd11548a76065b296762000927565b81601614156200071957507f1ff3f61797e538b70e619310d33f2a063e7eb59104e112e95738da1254dc345362000927565b81601714156200074b57507f10c16ae9959cf8358980d9dd9616e48228737310a10e2b6b731c1a548f036c4862000927565b81601814156200077d57507f0ba433a63174a90ac20992e75e3095496812b652685b5e1a2eae0b1bf4e8fcd162000927565b8160191415620007af57507f019ddb9df2bc98d987d0dfeca9d2b643deafab8f7036562e627c3667266a044c62000927565b81601a1415620007e157507f2d3c88b23175c5a5565db928414c66d1912b11acf974b2e644caaac04739ce9962000927565b81601b14156200081357507f2eab55f6ae4e66e32c5189eed5c470840863445760f5ed7e7b69b2a62600f35462000927565b81601c14156200084457507e2df37a2642621802383cf952bf4dd1f32e05433beeb1fd41031fb7eace979d62000927565b81601d14156200087657507f104aeb41435db66c3e62feccc1d6f5d98d0a0ed75d1374db457cf462e3a1f42762000927565b81601e1415620008a857507f1f3c6fd858e9a7d4b0d1f38e256a09d81d5a5e3c963987e2d4b814cfab7c6ebb62000927565b81601f1415620008da57507f2c7a07d20dff79d01fecedc1134284a8d08436606c93693b67e333f671bf69cc62000927565b6040805162461bcd60e51b815260206004820152601360248201527f496e646578206f7574206f6620626f756e647300000000000000000000000000604482015290519081900360640190fd5b919050565b60805160601c60a05160601c60c051611b366200096e600039806107645280610e24528061156652508061068e5250806114ab52806118025250611b366000f3fe6080604052600436106101b75760003560e01c80639b257237116100ec578063e5285dcc1161008a578063ec73295911610064578063ec732959146105fb578063ed33639f14610610578063f178e47c14610625578063fc7e9c6f1461064f576101b7565b8063e5285dcc14610592578063e64cb05b146105bc578063e8295588146105d1576101b7565b8063ba70f757116100c6578063ba70f75714610529578063bcd592611461053e578063c2b40ae414610553578063cd87a3b41461057d576101b7565b80639b257237146103a85780639fa12d0b14610441578063b214faa51461050c576101b7565b80636cd568991161015957806383efc5901161013357806383efc5901461032a5780638bca6d161461033f5780638ea3099e1461035457806390eeb02b14610393576101b7565b80636cd56899146102c15780636d9833e3146102d6578063839df94514610300576101b7565b80633ccfd60b116101955780633ccfd60b14610252578063414a37ba1461026957806341fcfac91461027e5780634ecf518b14610293576101b7565b806312065fe0146101bc57806317cc915c146101e35780632b7ac3f314610221575b600080fd5b3480156101c857600080fd5b506101d1610664565b60408051918252519081900360200190f35b3480156101ef57600080fd5b5061020d6004803603602081101561020657600080fd5b5035610677565b604080519115158252519081900360200190f35b34801561022d57600080fd5b5061023661068c565b604080516001600160a01b039092168252519081900360200190f35b34801561025e57600080fd5b506102676106b0565b005b34801561027557600080fd5b506101d1610750565b34801561028a57600080fd5b506101d1610762565b34801561029f57600080fd5b506102a8610786565b6040805163ffffffff9092168252519081900360200190f35b3480156102cd57600080fd5b50610236610792565b3480156102e257600080fd5b5061020d600480360360208110156102f957600080fd5b50356107a1565b34801561030c57600080fd5b5061020d6004803603602081101561032357600080fd5b5035610813565b34801561033657600080fd5b50610236610828565b34801561034b57600080fd5b506101d1610837565b34801561036057600080fd5b506101d16004803603606081101561037757600080fd5b506001600160a01b03813516906020810135906040013561083d565b34801561039f57600080fd5b506102a8610a09565b610267600480360360e08110156103be57600080fd5b810190602081018135600160201b8111156103d857600080fd5b8201836020820111156103ea57600080fd5b803590602001918460018302840111600160201b8311171561040b57600080fd5b91935091508035906020810135906001600160a01b03604082013581169160608101359091169060808101359060a00135610a15565b34801561044d57600080fd5b506104bc6004803603602081101561046457600080fd5b810190602081018135600160201b81111561047e57600080fd5b82018360208201111561049057600080fd5b803590602001918460208302840111600160201b831117156104b157600080fd5b509092509050610c08565b60408051602080825283518183015283519192839290830191858101910280838360005b838110156104f85781810151838201526020016104e0565b505050509050019250505060405180910390f35b6102676004803603602081101561052257600080fd5b5035610ca7565b34801561053557600080fd5b506101d1610dc8565b34801561054a57600080fd5b506101d1610de3565b34801561055f57600080fd5b506101d16004803603602081101561057657600080fd5b5035610df6565b34801561058957600080fd5b506102a8610e08565b34801561059e57600080fd5b5061020d600480360360208110156105b557600080fd5b5035610e0d565b3480156105c857600080fd5b506101d1610e22565b3480156105dd57600080fd5b506101d1600480360360208110156105f457600080fd5b5035610e46565b34801561060757600080fd5b506101d1611485565b34801561061c57600080fd5b506102366114a9565b34801561063157600080fd5b506101d16004803603602081101561064857600080fd5b50356114cd565b34801561065b57600080fd5b506102a86114df565b3360009081526009602052604090205490565b60066020526000908152604090205460ff1681565b7f000000000000000000000000000000000000000000000000000000000000000081565b60026004541415610708576040805162461bcd60e51b815260206004820152601f60248201527f5265656e7472616e637947756172643a207265656e7472616e742063616c6c00604482015290519081900360640190fd5b6002600455610716336114f2565b6040805133815290517fe19ed71156e31b3c9e18ac7ad8d1b79f0a0feb3be18d23dae612e52040aada4b9181900360200190a16001600455565b600080516020611a3683398151915281565b7f000000000000000000000000000000000000000000000000000000000000000090565b60005463ffffffff1681565b6008546001600160a01b031681565b6000816107b05750600061080e565b60035463ffffffff16805b63ffffffff81166000908152600260205260409020548414156107e35760019250505061080e565b63ffffffff81166107f25750601e5b6000190163ffffffff80821690831614156107bb576000925050505b919050565b60076020526000908152604090205460ff1681565b6008546001600160a01b031690565b60055481565b6000600080516020611a3683398151915283106108a1576040805162461bcd60e51b815260206004820181905260248201527f5f6c6566742073686f756c6420626520696e7369646520746865206669656c64604482015290519081900360640190fd5b600080516020611a3683398151915282106108ed5760405162461bcd60e51b8152600401808060200182810382526021815260200180611a156021913960400191505060405180910390fd5b6040805163f47d33b560e01b8152600481018590526000602482018190528251869391926001600160a01b0389169263f47d33b592604480840193829003018186803b15801561093c57600080fd5b505afa158015610950573d6000803e3d6000fd5b505050506040513d604081101561096657600080fd5b5080516020909101519092509050600080516020611a368339815191528483089150856001600160a01b031663f47d33b583836040518363ffffffff1660e01b81526004018083815260200182815260200192505050604080518083038186803b1580156109d357600080fd5b505afa1580156109e7573d6000803e3d6000fd5b505050506040513d60408110156109fd57600080fd5b50519695505050505050565b60035463ffffffff1681565b60026004541415610a6d576040805162461bcd60e51b815260206004820152601f60248201527f5265656e7472616e637947756172643a207265656e7472616e742063616c6c00604482015290519081900360640190fd5b6002600455600554821115610ac9576040805162461bcd60e51b815260206004820152601a60248201527f4665652065786365656473207472616e736665722076616c7565000000000000604482015290519081900360640190fd5b60008581526006602052604090205460ff1615610b2d576040805162461bcd60e51b815260206004820152601f60248201527f546865206e6f746520686173206265656e20616c7265616479207370656e7400604482015290519081900360640190fd5b610b36866107a1565b610b87576040805162461bcd60e51b815260206004820152601c60248201527f43616e6e6f742066696e6420796f7572206d65726b6c6520726f6f7400000000604482015290519081900360640190fd5b6000858152600660205260409020805460ff19166001179055610bab848484611685565b604080516001600160a01b038681168252602082018890528183018590529151918516917f34442074d74b17ccf0e7c1c7cd35089bb0c6e520f6331ce5e77a543fc69665569181900360600190a250506001600455505050505050565b60608167ffffffffffffffff81118015610c2157600080fd5b50604051908082528060200260200182016040528015610c4b578160200160208202803683370190505b50905060005b82811015610ca057610c74848483818110610c6857fe5b90506020020135610e0d565b15610c98576001828281518110610c8757fe5b911515602092830291909101909101525b600101610c51565b5092915050565b60026004541415610cff576040805162461bcd60e51b815260206004820152601f60248201527f5265656e7472616e637947756172643a207265656e7472616e742063616c6c00604482015290519081900360640190fd5b600260045560008181526007602052604090205460ff1615610d525760405162461bcd60e51b8152600401808060200182810382526021815260200180611a566021913960400191505060405180910390fd5b6000610d5d82611730565b6000838152600760205260409020805460ff191660011790559050610d806118a4565b6040805163ffffffff83168152426020820152815184927fa945e51eec50ab98c161376f0db4cf2aeba3ec92755fe2fcd388bdbbb80ff196928290030190a250506001600455565b60035463ffffffff1660009081526002602052604090205490565b336000908152600a602052604090205490565b60026020526000908152604090205481565b601e81565b60009081526006602052604090205460ff1690565b7f000000000000000000000000000000000000000000000000000000000000000081565b600081610e7457507f2fe54c60d3acabf3343a35b6eba15db4821b340f76e741e2249685ed4899af6c61080e565b8160011415610ea457507f256a6135777eee2fd26f54b8b7037a25439d5235caee224154186d2b8a52e31d61080e565b8160021415610ed457507f1151949895e82ab19924de92c40a3d6f7bcb60d92b00504b8199613683f0c20061080e565b8160031415610f0457507f20121ee811489ff8d61f09fb89e313f14959a0f28bb428a20dba6b0b068b3bdb61080e565b8160041415610f3457507f0a89ca6ffa14cc462cfedb842c30ed221a50a3d6bf022a6a57dc82ab24c157c961080e565b8160051415610f6457507f24ca05c2b5cd42e890d6be94c68d0689f4f21c9cec9c0f13fe41d566dfb5495961080e565b8160061415610f9457507f1ccb97c932565a92c60156bdba2d08f3bf1377464e025cee765679e604a7315c61080e565b8160071415610fc457507f19156fbd7d1a8bf5cba8909367de1b624534ebab4f0f79e003bccdd1b182bdb461080e565b8160081415610ff457507f261af8c1f0912e465744641409f622d466c3920ac6e5ff37e36604cb11dfff8061080e565b816009141561102357507e58459724ff6ca5a1652fcbc3e82b93895cf08e975b19beab3f54c217d1c00761080e565b81600a141561105357507f1f04ef20dee48d39984d8eabe768a70eafa6310ad20849d4573c3c40c2ad1e3061080e565b81600b141561108357507f1bea3dec5dab51567ce7e200a30f7ba6d4276aeaa53e2686f962a46c66d511e561080e565b81600c14156110b357507f0ee0f941e2da4b9e31c3ca97a40d8fa9ce68d97c084177071b3cb46cd3372f0f61080e565b81600d14156110e357507f1ca9503e8935884501bbaf20be14eb4c46b89772c97b96e3b2ebf3a36a948bbd61080e565b81600e141561111357507f133a80e30697cd55d8f7d4b0965b7be24057ba5dc3da898ee2187232446cb10861080e565b81600f141561114357507f13e6d8fc88839ed76e182c2a779af5b2c0da9dd18c90427a644f7e148a6253b661080e565b816010141561117357507f1eb16b057a477f4bc8f572ea6bee39561098f78f15bfb3699dcbb7bd8db6185461080e565b81601114156111a357507f0da2cb16a1ceaabf1c16b838f7a9e3f2a3a3088d9e0a6debaa748114620696ea61080e565b81601214156111d357507f24a3b3d822420b14b5d8cb6c28a574f01e98ea9e940551d2ebd75cee12649f9d61080e565b816013141561120357507f198622acbd783d1b0d9064105b1fc8e4d8889de95c4c519b3f635809fe6afc0561080e565b816014141561123357507f29d7ed391256ccc3ea596c86e933b89ff339d25ea8ddced975ae2fe30b5296d461080e565b816015141561126357507f19be59f2f0413ce78c0c3703a3a5451b1d7f39629fa33abd11548a76065b296761080e565b816016141561129357507f1ff3f61797e538b70e619310d33f2a063e7eb59104e112e95738da1254dc345361080e565b81601714156112c357507f10c16ae9959cf8358980d9dd9616e48228737310a10e2b6b731c1a548f036c4861080e565b81601814156112f357507f0ba433a63174a90ac20992e75e3095496812b652685b5e1a2eae0b1bf4e8fcd161080e565b816019141561132357507f019ddb9df2bc98d987d0dfeca9d2b643deafab8f7036562e627c3667266a044c61080e565b81601a141561135357507f2d3c88b23175c5a5565db928414c66d1912b11acf974b2e644caaac04739ce9961080e565b81601b141561138357507f2eab55f6ae4e66e32c5189eed5c470840863445760f5ed7e7b69b2a62600f35461080e565b81601c14156113b257507e2df37a2642621802383cf952bf4dd1f32e05433beeb1fd41031fb7eace979d61080e565b81601d14156113e257507f104aeb41435db66c3e62feccc1d6f5d98d0a0ed75d1374db457cf462e3a1f42761080e565b81601e141561141257507f1f3c6fd858e9a7d4b0d1f38e256a09d81d5a5e3c963987e2d4b814cfab7c6ebb61080e565b81601f141561144257507f2c7a07d20dff79d01fecedc1134284a8d08436606c93693b67e333f671bf69cc61080e565b6040805162461bcd60e51b8152602060048201526013602482015272496e646578206f7574206f6620626f756e647360681b604482015290519081900360640190fd5b7f2fe54c60d3acabf3343a35b6eba15db4821b340f76e741e2249685ed4899af6c81565b7f000000000000000000000000000000000000000000000000000000000000000081565b60016020526000908152604090205481565b600354600160201b900463ffffffff1681565b6001600160a01b038116600090815260096020526040902054819061154b576040805162461bcd60e51b815260206004820152600a6024820152696e6f2062616c616e636560b01b604482015290519081900360640190fd5b6001600160a01b0381166000908152600a60205260409020547f00000000000000000000000000000000000000000000000000000000000000009061159190439061191e565b10156115e4576040805162461bcd60e51b815260206004820152601760248201527f6d696e207761697420626c6f636b73206e6f74206d6574000000000000000000604482015290519081900360640190fd5b6001600160a01b0382166000818152600960205260408082205490519192918381818185875af1925050503d806000811461163b576040519150601f19603f3d011682016040523d82523d6000602084013e611640565b606091505b50509050806116805760405162461bcd60e51b8152600401808060200182810382526025815260200180611a776025913960400191505060405180910390fd5b505050565b34156116c25760405162461bcd60e51b8152600401808060200182810382526035815260200180611acc6035913960400191505060405180910390fd5b6008546040805160016271ceb960e11b031981526001600160a01b0386811660048301529151919092169163ff1c628e91602480830192600092919082900301818387803b15801561171357600080fd5b505af1158015611727573d6000803e3d6000fd5b50505050505050565b60035460008054909163ffffffff600160201b909104811691811660020a1681141561178d5760405162461bcd60e51b8152600401808060200182810382526030815260200180611a9c6030913960400191505060405180910390fd5b8083600080805b60005463ffffffff908116908216101561183e57600185166117e1578392506117c28163ffffffff16610e46565b63ffffffff8216600090815260016020526040902085905591506117fd565b63ffffffff811660009081526001602052604090205492508391505b6118287f0000000000000000000000000000000000000000000000000000000000000000848461083d565b9350600263ffffffff8616049450600101611794565b505060038054601e63ffffffff8083166001908101821692909206811663ffffffff199093168317845560009283526002602052604090922094909455815493860116600160201b0267ffffffff00000000199093169290921790915550909392505050565b60055434146118e45760405162461bcd60e51b81526004018080602001828103825260388152602001806119dd6038913960400191505060405180910390fd5b336000908152600960205260409020546118fe903461197b565b33600090815260096020908152604080832093909355600a905220439055565b600082821115611975576040805162461bcd60e51b815260206004820152601e60248201527f536166654d6174683a207375627472616374696f6e206f766572666c6f770000604482015290519081900360640190fd5b50900390565b6000828201838110156119d5576040805162461bcd60e51b815260206004820152601b60248201527f536166654d6174683a206164646974696f6e206f766572666c6f770000000000604482015290519081900360640190fd5b939250505056fe506c656173652073656e6420606d697844656e6f6d696e6174696f6e602045544820616c6f6e672077697468207472616e73616374696f6e5f72696768742073686f756c6420626520696e7369646520746865206669656c6430644e72e131a029b85045b68181585d2833e84879b9709143e1f593f000000154686520636f6d6d69746d656e7420686173206265656e207375626d69747465647061796d656e7420746f205f726563697069656e7420646964206e6f7420676f20746872754d65726b6c6520747265652069732066756c6c2e204e6f206d6f7265206c65617665732063616e2062652061646465644d6573736167652076616c756520697320737570706f73656420746f206265207a65726f20666f722045544820696e7374616e6365a2646970667358221220dc48b6e2cc265b5ca880efe92665fc624d657c0dc7bb72a826b4b9c82871b81164736f6c6343000706003364656e6f6d696e6174696f6e2073686f756c642062652067726561746572207468616e20305f6c6576656c732073686f756c642062652067726561746572207468616e207a65726f",
  "immutableReferences": {
    "11": [
      {
        "length": 32,
        "start": 1892
      },
      {
        "length": 32,
        "start": 3620
      },
      {
        "length": 32,
        "start": 5478
      }
    ],
    "237": [
      {
        "length": 32,
        "start": 1678
      }
    ],
    "660": [
      {
        "length": 32,
        "start": 5291
      },
      {
        "length": 32,
        "start": 6146
      }
    ]
  },
  "source": "// SPDX-License-Identifier: MIT\npragma solidity ^0.7.0;\n\nimport \"./FlexNFT.sol\";\nimport \"./FlexClub.sol\";\nimport \"@openzeppelin/contracts/math/SafeMath.sol\";\n\ncontract ETHFlexClub is FlexClub {\n    using SafeMath for uint256;\n\n    uint public immutable MINIMUM_WAIT_BLOCKS;\n\n\n    address public flexNFTContract;\n    //deposits\n    mapping(address => uint256) private _balances;\n    //deposit blocks\n    mapping(address => uint256) private _depositBlocks;\n\n    constructor(\n        IVerifier _verifier,\n        IHasher _hasher,\n        uint256 _denomination,\n        uint32 _merkleTreeHeight,\n        address _flexNFT,\n        uint _minimumWaitBlocks\n    ) FlexClub(_verifier, _hasher, _denomination, _merkleTreeHeight) {\n\n        flexNFTContract =  _flexNFT;\n        require(_minimumWaitBlocks>0, \"zero min wait blocks\");\n        MINIMUM_WAIT_BLOCKS = _minimumWaitBlocks; \n    }\n\n    function getFlexNFTAddress() view external returns (address) {\n        return address(flexNFTContract);\n    }\n\n    function getBalance() view external returns (uint256){\n        return _balances[msg.sender];\n    }\n\n    function getDepositBlock() view external returns (uint) {\n        return _depositBlocks[msg.sender];\n    }\n\n    function getMinimumWaitBlocks() view external returns (uint) {\n        return MINIMUM_WAIT_BLOCKS;\n    }\n\n    function _processDeposit() internal override {\n        require(msg.value == denomination, \"Please send `mixDenomination` ETH along with transaction\");\n        _balances[msg.sender] = _balances[msg.sender].add(msg.value);\n        _depositBlocks[msg.sender] = block.number;\n    }\n\n    modifier canWithdraw(address sender) {\n        require(_balances[sender] > 0, \"no balance\");\n        require(block.number.sub(_depositBlocks[sender]) >= MINIMUM_WAIT_BLOCKS, \"min wait blocks not met\");\n        _;\n    }\n\n    function _processWithdraw(address payable _recipient) canWithdraw(_recipient) internal override  {\n        (bool success, ) = _recipient.call{ value: _balances[_recipient] }(\"\");\n        require(success, \"payment to _recipient did not go thru\");\n    }\n\n    function _processMint(\n        address payable _recipient,\n        address payable _relayer,\n        uint256 _fee\n    ) internal override {\n        // sanity checks\n        require(msg.value == 0, \"Message value is supposed to be zero for ETH instance\");\n        // mint FlexNFT\n        FlexNFT(flexNFTContract).awardNFT(_recipient);\n\n        // if (_fee > 0) {\n        //   (success, ) = _relayer.call{ value: _fee }(\"\");\n        //   require(success, \"payment to _relayer did not go thru\");\n        // }\n    }\n}\n",
  "sourcePath": "/Users/mohsenahmadvand/Projects/zkflex-nft/contracts/ETHFlexClub.sol",
  "compiler": {
    "name": "solc",
    "version": "0.7.6+commit.7338295f.Emscripten.clang"
  },
  "schemaVersion": "3.3.4",
  "updatedAt": "2022-05-03T16:42:36.046Z",
  "networkType": "ethereum",
  "devdoc": {
    "kind": "dev",
    "methods": {
      "deposit(bytes32)": {
        "details": "Deposit funds into the contract. The caller must send (for ETH) or approve (for ERC20) value equal to or `denomination` of this instance.",
        "params": {
          "_commitment": "the note commitment, which is PedersenHash(nullifier + secret)"
        }
      },
      "getLastRoot()": {
        "details": "Returns the last root"
      },
      "hashLeftRight(address,bytes32,bytes32)": {
        "details": "Hash 2 tree leaves, returns MiMC(_left, _right)"
      },
      "isKnownRoot(bytes32)": {
        "details": "Whether the root is present in the root history"
      },
      "isSpent(bytes32)": {
        "details": "whether a note is already spent "
      },
      "isSpentArray(bytes32[])": {
        "details": "whether an array of notes is already spent "
      },
      "mintNFT(bytes,bytes32,bytes32,address,address,uint256,uint256)": {
        "details": "mintNFT mints flex NFT from the contract. `proof` is a zkSNARK proof data, and input is an array of circuit public inputs `input` array consists of: - merkle root of all deposits in the contract - hash of unique deposit nullifier to prevent double spends - the recipient of funds - optional fee that goes to the transaction sender (usually a relay)"
      },
      "withdraw()": {
        "details": "Withdraw a deposit from the contract. A wait time is enforced to prevent flash loans. "
      },
      "zeros(uint256)": {
        "details": "provides Zero (Empty) elements for a MiMC MerkleTree. Up to 32 levels"
      }
    },
    "version": 1
  },
  "userdoc": {
    "kind": "user",
    "methods": {},
    "version": 1
  }
}