{
  "contractName": "ETHFlexClub",
  "abi": [
    {
      "inputs": [
        {
          "internalType": "contract IVerifier",
          "name": "_verifier",
          "type": "address"
        },
        {
          "internalType": "contract IHasher",
          "name": "_hasher",
          "type": "address"
        },
        {
          "internalType": "uint256",
          "name": "_denomination",
          "type": "uint256"
        },
        {
          "internalType": "uint32",
          "name": "_merkleTreeHeight",
          "type": "uint32"
        },
        {
          "internalType": "address",
          "name": "_flexNFT",
          "type": "address"
        },
        {
          "internalType": "uint256",
          "name": "_minimumWaitBlocks",
          "type": "uint256"
        }
      ],
      "stateMutability": "nonpayable",
      "type": "constructor"
    },
    {
      "anonymous": false,
      "inputs": [
        {
          "indexed": true,
          "internalType": "bytes32",
          "name": "commitment",
          "type": "bytes32"
        },
        {
          "indexed": false,
          "internalType": "uint32",
          "name": "leafIndex",
          "type": "uint32"
        },
        {
          "indexed": false,
          "internalType": "uint256",
          "name": "timestamp",
          "type": "uint256"
        }
      ],
      "name": "Deposit",
      "type": "event"
    },
    {
      "anonymous": false,
      "inputs": [
        {
          "indexed": false,
          "internalType": "address",
          "name": "to",
          "type": "address"
        },
        {
          "indexed": false,
          "internalType": "bytes32",
          "name": "nullifierHash",
          "type": "bytes32"
        },
        {
          "indexed": true,
          "internalType": "address",
          "name": "relayer",
          "type": "address"
        },
        {
          "indexed": false,
          "internalType": "uint256",
          "name": "fee",
          "type": "uint256"
        }
      ],
      "name": "NFTMint",
      "type": "event"
    },
    {
      "anonymous": false,
      "inputs": [
        {
          "indexed": false,
          "internalType": "address",
          "name": "to",
          "type": "address"
        }
      ],
      "name": "Withdrawal",
      "type": "event"
    },
    {
      "inputs": [],
      "name": "FIELD_SIZE",
      "outputs": [
        {
          "internalType": "uint256",
          "name": "",
          "type": "uint256"
        }
      ],
      "stateMutability": "view",
      "type": "function",
      "constant": true
    },
    {
      "inputs": [],
      "name": "MINIMUM_WAIT_BLOCKS",
      "outputs": [
        {
          "internalType": "uint256",
          "name": "",
          "type": "uint256"
        }
      ],
      "stateMutability": "view",
      "type": "function",
      "constant": true
    },
    {
      "inputs": [],
      "name": "ROOT_HISTORY_SIZE",
      "outputs": [
        {
          "internalType": "uint32",
          "name": "",
          "type": "uint32"
        }
      ],
      "stateMutability": "view",
      "type": "function",
      "constant": true
    },
    {
      "inputs": [],
      "name": "ZERO_VALUE",
      "outputs": [
        {
          "internalType": "uint256",
          "name": "",
          "type": "uint256"
        }
      ],
      "stateMutability": "view",
      "type": "function",
      "constant": true
    },
    {
      "inputs": [
        {
          "internalType": "bytes32",
          "name": "",
          "type": "bytes32"
        }
      ],
      "name": "commitments",
      "outputs": [
        {
          "internalType": "bool",
          "name": "",
          "type": "bool"
        }
      ],
      "stateMutability": "view",
      "type": "function",
      "constant": true
    },
    {
      "inputs": [],
      "name": "currentRootIndex",
      "outputs": [
        {
          "internalType": "uint32",
          "name": "",
          "type": "uint32"
        }
      ],
      "stateMutability": "view",
      "type": "function",
      "constant": true
    },
    {
      "inputs": [],
      "name": "denomination",
      "outputs": [
        {
          "internalType": "uint256",
          "name": "",
          "type": "uint256"
        }
      ],
      "stateMutability": "view",
      "type": "function",
      "constant": true
    },
    {
      "inputs": [
        {
          "internalType": "bytes32",
          "name": "_commitment",
          "type": "bytes32"
        }
      ],
      "name": "deposit",
      "outputs": [],
      "stateMutability": "payable",
      "type": "function",
      "payable": true
    },
    {
      "inputs": [
        {
          "internalType": "uint256",
          "name": "",
          "type": "uint256"
        }
      ],
      "name": "filledSubtrees",
      "outputs": [
        {
          "internalType": "bytes32",
          "name": "",
          "type": "bytes32"
        }
      ],
      "stateMutability": "view",
      "type": "function",
      "constant": true
    },
    {
      "inputs": [],
      "name": "flexNFTContract",
      "outputs": [
        {
          "internalType": "address",
          "name": "",
          "type": "address"
        }
      ],
      "stateMutability": "view",
      "type": "function",
      "constant": true
    },
    {
      "inputs": [],
      "name": "getLastRoot",
      "outputs": [
        {
          "internalType": "bytes32",
          "name": "",
          "type": "bytes32"
        }
      ],
      "stateMutability": "view",
      "type": "function",
      "constant": true
    },
    {
      "inputs": [
        {
          "internalType": "contract IHasher",
          "name": "_hasher",
          "type": "address"
        },
        {
          "internalType": "bytes32",
          "name": "_left",
          "type": "bytes32"
        },
        {
          "internalType": "bytes32",
          "name": "_right",
          "type": "bytes32"
        }
      ],
      "name": "hashLeftRight",
      "outputs": [
        {
          "internalType": "bytes32",
          "name": "",
          "type": "bytes32"
        }
      ],
      "stateMutability": "pure",
      "type": "function",
      "constant": true
    },
    {
      "inputs": [],
      "name": "hasher",
      "outputs": [
        {
          "internalType": "contract IHasher",
          "name": "",
          "type": "address"
        }
      ],
      "stateMutability": "view",
      "type": "function",
      "constant": true
    },
    {
      "inputs": [
        {
          "internalType": "bytes32",
          "name": "_root",
          "type": "bytes32"
        }
      ],
      "name": "isKnownRoot",
      "outputs": [
        {
          "internalType": "bool",
          "name": "",
          "type": "bool"
        }
      ],
      "stateMutability": "view",
      "type": "function",
      "constant": true
    },
    {
      "inputs": [
        {
          "internalType": "bytes32",
          "name": "_nullifierHash",
          "type": "bytes32"
        }
      ],
      "name": "isSpent",
      "outputs": [
        {
          "internalType": "bool",
          "name": "",
          "type": "bool"
        }
      ],
      "stateMutability": "view",
      "type": "function",
      "constant": true
    },
    {
      "inputs": [
        {
          "internalType": "bytes32[]",
          "name": "_nullifierHashes",
          "type": "bytes32[]"
        }
      ],
      "name": "isSpentArray",
      "outputs": [
        {
          "internalType": "bool[]",
          "name": "spent",
          "type": "bool[]"
        }
      ],
      "stateMutability": "view",
      "type": "function",
      "constant": true
    },
    {
      "inputs": [],
      "name": "levels",
      "outputs": [
        {
          "internalType": "uint32",
          "name": "",
          "type": "uint32"
        }
      ],
      "stateMutability": "view",
      "type": "function",
      "constant": true
    },
    {
      "inputs": [
        {
          "internalType": "bytes",
          "name": "_proof",
          "type": "bytes"
        },
        {
          "internalType": "bytes32",
          "name": "_root",
          "type": "bytes32"
        },
        {
          "internalType": "bytes32",
          "name": "_nullifierHash",
          "type": "bytes32"
        },
        {
          "internalType": "address payable",
          "name": "_recipient",
          "type": "address"
        },
        {
          "internalType": "address payable",
          "name": "_relayer",
          "type": "address"
        },
        {
          "internalType": "uint256",
          "name": "_fee",
          "type": "uint256"
        },
        {
          "internalType": "uint256",
          "name": "_refund",
          "type": "uint256"
        }
      ],
      "name": "mintNFT",
      "outputs": [],
      "stateMutability": "payable",
      "type": "function",
      "payable": true
    },
    {
      "inputs": [],
      "name": "nextIndex",
      "outputs": [
        {
          "internalType": "uint32",
          "name": "",
          "type": "uint32"
        }
      ],
      "stateMutability": "view",
      "type": "function",
      "constant": true
    },
    {
      "inputs": [
        {
          "internalType": "bytes32",
          "name": "",
          "type": "bytes32"
        }
      ],
      "name": "nullifierHashes",
      "outputs": [
        {
          "internalType": "bool",
          "name": "",
          "type": "bool"
        }
      ],
      "stateMutability": "view",
      "type": "function",
      "constant": true
    },
    {
      "inputs": [
        {
          "internalType": "uint256",
          "name": "",
          "type": "uint256"
        }
      ],
      "name": "roots",
      "outputs": [
        {
          "internalType": "bytes32",
          "name": "",
          "type": "bytes32"
        }
      ],
      "stateMutability": "view",
      "type": "function",
      "constant": true
    },
    {
      "inputs": [],
      "name": "verifier",
      "outputs": [
        {
          "internalType": "contract IVerifier",
          "name": "",
          "type": "address"
        }
      ],
      "stateMutability": "view",
      "type": "function",
      "constant": true
    },
    {
      "inputs": [],
      "name": "withdraw",
      "outputs": [],
      "stateMutability": "nonpayable",
      "type": "function"
    },
    {
      "inputs": [
        {
          "internalType": "uint256",
          "name": "i",
          "type": "uint256"
        }
      ],
      "name": "zeros",
      "outputs": [
        {
          "internalType": "bytes32",
          "name": "",
          "type": "bytes32"
        }
      ],
      "stateMutability": "pure",
      "type": "function",
      "constant": true
    },
    {
      "inputs": [],
      "name": "getFlexNFTAddress",
      "outputs": [
        {
          "internalType": "address",
          "name": "",
          "type": "address"
        }
      ],
      "stateMutability": "view",
      "type": "function",
      "constant": true
    }
  ],
  "bytecode": "0x60e0604052600380546001600160401b03191690553480156200002157600080fd5b506040516200258b3803806200258b833981810160405260c08110156200004757600080fd5b508051602082015160408301516060840151608085015160a090950151939492939192909185858585808363ffffffff8216620000b65760405162461bcd60e51b8152600401808060200182810382526023815260200180620025686023913960400191505060405180910390fd5b60208263ffffffff161062000112576040805162461bcd60e51b815260206004820152601e60248201527f5f6c6576656c732073686f756c64206265206c657373207468616e2033320000604482015290519081900360640190fd5b6000805463ffffffff191663ffffffff8416178155606082901b6001600160601b0319166080525b8263ffffffff168163ffffffff16101562000183576200016063ffffffff82166200029e565b63ffffffff8216600090815260016020819052604090912091909155016200013a565b506200019963ffffffff6000198401166200029e565b6000805260026020527fac33ff75c19e70fe83507db0d683fd3465c996598dc972688b7ace676c89077b555050600160045581620002095760405162461bcd60e51b8152600401808060200182810382526025815260200180620025436025913960400191505060405180910390fd5b5060609290921b6001600160601b03191660a05250600555600880546001600160a01b0319166001600160a01b038416179055806200028f576040805162461bcd60e51b815260206004820152601460248201527f7a65726f206d696e207761697420626c6f636b73000000000000000000000000604482015290519081900360640190fd5b60c052506200092c9350505050565b600081620002ce57507f2fe54c60d3acabf3343a35b6eba15db4821b340f76e741e2249685ed4899af6c62000927565b81600114156200030057507f256a6135777eee2fd26f54b8b7037a25439d5235caee224154186d2b8a52e31d62000927565b81600214156200033257507f1151949895e82ab19924de92c40a3d6f7bcb60d92b00504b8199613683f0c20062000927565b81600314156200036457507f20121ee811489ff8d61f09fb89e313f14959a0f28bb428a20dba6b0b068b3bdb62000927565b81600414156200039657507f0a89ca6ffa14cc462cfedb842c30ed221a50a3d6bf022a6a57dc82ab24c157c962000927565b8160051415620003c857507f24ca05c2b5cd42e890d6be94c68d0689f4f21c9cec9c0f13fe41d566dfb5495962000927565b8160061415620003fa57507f1ccb97c932565a92c60156bdba2d08f3bf1377464e025cee765679e604a7315c62000927565b81600714156200042c57507f19156fbd7d1a8bf5cba8909367de1b624534ebab4f0f79e003bccdd1b182bdb462000927565b81600814156200045e57507f261af8c1f0912e465744641409f622d466c3920ac6e5ff37e36604cb11dfff8062000927565b81600914156200048f57507e58459724ff6ca5a1652fcbc3e82b93895cf08e975b19beab3f54c217d1c00762000927565b81600a1415620004c157507f1f04ef20dee48d39984d8eabe768a70eafa6310ad20849d4573c3c40c2ad1e3062000927565b81600b1415620004f357507f1bea3dec5dab51567ce7e200a30f7ba6d4276aeaa53e2686f962a46c66d511e562000927565b81600c14156200052557507f0ee0f941e2da4b9e31c3ca97a40d8fa9ce68d97c084177071b3cb46cd3372f0f62000927565b81600d14156200055757507f1ca9503e8935884501bbaf20be14eb4c46b89772c97b96e3b2ebf3a36a948bbd62000927565b81600e14156200058957507f133a80e30697cd55d8f7d4b0965b7be24057ba5dc3da898ee2187232446cb10862000927565b81600f1415620005bb57507f13e6d8fc88839ed76e182c2a779af5b2c0da9dd18c90427a644f7e148a6253b662000927565b8160101415620005ed57507f1eb16b057a477f4bc8f572ea6bee39561098f78f15bfb3699dcbb7bd8db6185462000927565b81601114156200061f57507f0da2cb16a1ceaabf1c16b838f7a9e3f2a3a3088d9e0a6debaa748114620696ea62000927565b81601214156200065157507f24a3b3d822420b14b5d8cb6c28a574f01e98ea9e940551d2ebd75cee12649f9d62000927565b81601314156200068357507f198622acbd783d1b0d9064105b1fc8e4d8889de95c4c519b3f635809fe6afc0562000927565b8160141415620006b557507f29d7ed391256ccc3ea596c86e933b89ff339d25ea8ddced975ae2fe30b5296d462000927565b8160151415620006e757507f19be59f2f0413ce78c0c3703a3a5451b1d7f39629fa33abd11548a76065b296762000927565b81601614156200071957507f1ff3f61797e538b70e619310d33f2a063e7eb59104e112e95738da1254dc345362000927565b81601714156200074b57507f10c16ae9959cf8358980d9dd9616e48228737310a10e2b6b731c1a548f036c4862000927565b81601814156200077d57507f0ba433a63174a90ac20992e75e3095496812b652685b5e1a2eae0b1bf4e8fcd162000927565b8160191415620007af57507f019ddb9df2bc98d987d0dfeca9d2b643deafab8f7036562e627c3667266a044c62000927565b81601a1415620007e157507f2d3c88b23175c5a5565db928414c66d1912b11acf974b2e644caaac04739ce9962000927565b81601b14156200081357507f2eab55f6ae4e66e32c5189eed5c470840863445760f5ed7e7b69b2a62600f35462000927565b81601c14156200084457507e2df37a2642621802383cf952bf4dd1f32e05433beeb1fd41031fb7eace979d62000927565b81601d14156200087657507f104aeb41435db66c3e62feccc1d6f5d98d0a0ed75d1374db457cf462e3a1f42762000927565b81601e1415620008a857507f1f3c6fd858e9a7d4b0d1f38e256a09d81d5a5e3c963987e2d4b814cfab7c6ebb62000927565b81601f1415620008da57507f2c7a07d20dff79d01fecedc1134284a8d08436606c93693b67e333f671bf69cc62000927565b6040805162461bcd60e51b815260206004820152601360248201527f496e646578206f7574206f6620626f756e647300000000000000000000000000604482015290519081900360640190fd5b919050565b60805160601c60a05160601c60c051611bd56200096e60003980610ec352806116055250806105eb5280610ac252508061154a52806118a15250611bd56000f3fe6080604052600436106101665760003560e01c80639b257237116100d1578063e5285dcc1161008a578063ec73295911610064578063ec7329591461056b578063ed33639f14610580578063f178e47c14610595578063fc7e9c6f146105bf57610166565b8063e5285dcc14610502578063e64cb05b1461052c578063e82955881461054157610166565b80639b2572371461032d5780639fa12d0b146103c6578063b214faa514610491578063ba70f757146104ae578063c2b40ae4146104c3578063cd87a3b4146104ed57610166565b80636d9833e3116101235780636d9833e31461025b578063839df9451461028557806383efc590146102af5780638bca6d16146102c45780638ea3099e146102d957806390eeb02b1461031857610166565b806317cc915c1461016b5780632b7ac3f3146101a95780633ccfd60b146101da578063414a37ba146101f15780634ecf518b146102185780636cd5689914610246575b600080fd5b34801561017757600080fd5b506101956004803603602081101561018e57600080fd5b50356105d4565b604080519115158252519081900360200190f35b3480156101b557600080fd5b506101be6105e9565b604080516001600160a01b039092168252519081900360200190f35b3480156101e657600080fd5b506101ef61060d565b005b3480156101fd57600080fd5b506102066106ad565b60408051918252519081900360200190f35b34801561022457600080fd5b5061022d6106bf565b6040805163ffffffff9092168252519081900360200190f35b34801561025257600080fd5b506101be6106cb565b34801561026757600080fd5b506101956004803603602081101561027e57600080fd5b50356106da565b34801561029157600080fd5b50610195600480360360208110156102a857600080fd5b503561074c565b3480156102bb57600080fd5b506101be610761565b3480156102d057600080fd5b50610206610770565b3480156102e557600080fd5b50610206600480360360608110156102fc57600080fd5b506001600160a01b038135169060208101359060400135610776565b34801561032457600080fd5b5061022d610942565b6101ef600480360360e081101561034357600080fd5b810190602081018135600160201b81111561035d57600080fd5b82018360208201111561036f57600080fd5b803590602001918460018302840111600160201b8311171561039057600080fd5b91935091508035906020810135906001600160a01b03604082013581169160608101359091169060808101359060a0013561094e565b3480156103d257600080fd5b50610441600480360360208110156103e957600080fd5b810190602081018135600160201b81111561040357600080fd5b82018360208201111561041557600080fd5b803590602001918460208302840111600160201b8311171561043657600080fd5b509092509050610cba565b60408051602080825283518183015283519192839290830191858101910280838360005b8381101561047d578181015183820152602001610465565b505050509050019250505060405180910390f35b6101ef600480360360208110156104a757600080fd5b5035610d59565b3480156104ba57600080fd5b50610206610e7a565b3480156104cf57600080fd5b50610206600480360360208110156104e657600080fd5b5035610e95565b3480156104f957600080fd5b5061022d610ea7565b34801561050e57600080fd5b506101956004803603602081101561052557600080fd5b5035610eac565b34801561053857600080fd5b50610206610ec1565b34801561054d57600080fd5b506102066004803603602081101561056457600080fd5b5035610ee5565b34801561057757600080fd5b50610206611524565b34801561058c57600080fd5b506101be611548565b3480156105a157600080fd5b50610206600480360360208110156105b857600080fd5b503561156c565b3480156105cb57600080fd5b5061022d61157e565b60066020526000908152604090205460ff1681565b7f000000000000000000000000000000000000000000000000000000000000000081565b60026004541415610665576040805162461bcd60e51b815260206004820152601f60248201527f5265656e7472616e637947756172643a207265656e7472616e742063616c6c00604482015290519081900360640190fd5b600260045561067333611591565b6040805133815290517fe19ed71156e31b3c9e18ac7ad8d1b79f0a0feb3be18d23dae612e52040aada4b9181900360200190a16001600455565b600080516020611ad583398151915281565b60005463ffffffff1681565b6008546001600160a01b031681565b6000816106e957506000610747565b60035463ffffffff16805b63ffffffff811660009081526002602052604090205484141561071c57600192505050610747565b63ffffffff811661072b5750601e5b6000190163ffffffff80821690831614156106f4576000925050505b919050565b60076020526000908152604090205460ff1681565b6008546001600160a01b031690565b60055481565b6000600080516020611ad583398151915283106107da576040805162461bcd60e51b815260206004820181905260248201527f5f6c6566742073686f756c6420626520696e7369646520746865206669656c64604482015290519081900360640190fd5b600080516020611ad583398151915282106108265760405162461bcd60e51b8152600401808060200182810382526021815260200180611ab46021913960400191505060405180910390fd5b6040805163f47d33b560e01b8152600481018590526000602482018190528251869391926001600160a01b0389169263f47d33b592604480840193829003018186803b15801561087557600080fd5b505afa158015610889573d6000803e3d6000fd5b505050506040513d604081101561089f57600080fd5b5080516020909101519092509050600080516020611ad58339815191528483089150856001600160a01b031663f47d33b583836040518363ffffffff1660e01b81526004018083815260200182815260200192505050604080518083038186803b15801561090c57600080fd5b505afa158015610920573d6000803e3d6000fd5b505050506040513d604081101561093657600080fd5b50519695505050505050565b60035463ffffffff1681565b600260045414156109a6576040805162461bcd60e51b815260206004820152601f60248201527f5265656e7472616e637947756172643a207265656e7472616e742063616c6c00604482015290519081900360640190fd5b6002600455600554821115610a02576040805162461bcd60e51b815260206004820152601a60248201527f4665652065786365656473207472616e736665722076616c7565000000000000604482015290519081900360640190fd5b60008581526006602052604090205460ff1615610a66576040805162461bcd60e51b815260206004820152601f60248201527f546865206e6f746520686173206265656e20616c7265616479207370656e7400604482015290519081900360640190fd5b610a6f866106da565b610ac0576040805162461bcd60e51b815260206004820152601c60248201527f43616e6e6f742066696e6420796f7572206d65726b6c6520726f6f7400000000604482015290519081900360640190fd5b7f00000000000000000000000000000000000000000000000000000000000000006001600160a01b031663695ef6f989896040518060c001604052808b60001c81526020018a60001c8152602001896001600160a01b03168152602001886001600160a01b03168152602001878152602001868152506040518463ffffffff1660e01b8152600401808060200183600660200280838360005b83811015610b71578181015183820152602001610b59565b505050509050018281038252858582818152602001925080828437600081840152601f19601f820116905080830192505050945050505050602060405180830381600087803b158015610bc357600080fd5b505af1158015610bd7573d6000803e3d6000fd5b505050506040513d6020811015610bed57600080fd5b5051610c39576040805162461bcd60e51b815260206004820152601660248201527524b73b30b634b2103bb4ba34323930bb90383937b7b360511b604482015290519081900360640190fd5b6000858152600660205260409020805460ff19166001179055610c5d848484611724565b604080516001600160a01b038681168252602082018890528183018590529151918516917f34442074d74b17ccf0e7c1c7cd35089bb0c6e520f6331ce5e77a543fc69665569181900360600190a250506001600455505050505050565b60608167ffffffffffffffff81118015610cd357600080fd5b50604051908082528060200260200182016040528015610cfd578160200160208202803683370190505b50905060005b82811015610d5257610d26848483818110610d1a57fe5b90506020020135610eac565b15610d4a576001828281518110610d3957fe5b911515602092830291909101909101525b600101610d03565b5092915050565b60026004541415610db1576040805162461bcd60e51b815260206004820152601f60248201527f5265656e7472616e637947756172643a207265656e7472616e742063616c6c00604482015290519081900360640190fd5b600260045560008181526007602052604090205460ff1615610e045760405162461bcd60e51b8152600401808060200182810382526021815260200180611af56021913960400191505060405180910390fd5b6000610e0f826117cf565b6000838152600760205260409020805460ff191660011790559050610e32611943565b6040805163ffffffff83168152426020820152815184927fa945e51eec50ab98c161376f0db4cf2aeba3ec92755fe2fcd388bdbbb80ff196928290030190a250506001600455565b60035463ffffffff1660009081526002602052604090205490565b60026020526000908152604090205481565b601e81565b60009081526006602052604090205460ff1690565b7f000000000000000000000000000000000000000000000000000000000000000081565b600081610f1357507f2fe54c60d3acabf3343a35b6eba15db4821b340f76e741e2249685ed4899af6c610747565b8160011415610f4357507f256a6135777eee2fd26f54b8b7037a25439d5235caee224154186d2b8a52e31d610747565b8160021415610f7357507f1151949895e82ab19924de92c40a3d6f7bcb60d92b00504b8199613683f0c200610747565b8160031415610fa357507f20121ee811489ff8d61f09fb89e313f14959a0f28bb428a20dba6b0b068b3bdb610747565b8160041415610fd357507f0a89ca6ffa14cc462cfedb842c30ed221a50a3d6bf022a6a57dc82ab24c157c9610747565b816005141561100357507f24ca05c2b5cd42e890d6be94c68d0689f4f21c9cec9c0f13fe41d566dfb54959610747565b816006141561103357507f1ccb97c932565a92c60156bdba2d08f3bf1377464e025cee765679e604a7315c610747565b816007141561106357507f19156fbd7d1a8bf5cba8909367de1b624534ebab4f0f79e003bccdd1b182bdb4610747565b816008141561109357507f261af8c1f0912e465744641409f622d466c3920ac6e5ff37e36604cb11dfff80610747565b81600914156110c257507e58459724ff6ca5a1652fcbc3e82b93895cf08e975b19beab3f54c217d1c007610747565b81600a14156110f257507f1f04ef20dee48d39984d8eabe768a70eafa6310ad20849d4573c3c40c2ad1e30610747565b81600b141561112257507f1bea3dec5dab51567ce7e200a30f7ba6d4276aeaa53e2686f962a46c66d511e5610747565b81600c141561115257507f0ee0f941e2da4b9e31c3ca97a40d8fa9ce68d97c084177071b3cb46cd3372f0f610747565b81600d141561118257507f1ca9503e8935884501bbaf20be14eb4c46b89772c97b96e3b2ebf3a36a948bbd610747565b81600e14156111b257507f133a80e30697cd55d8f7d4b0965b7be24057ba5dc3da898ee2187232446cb108610747565b81600f14156111e257507f13e6d8fc88839ed76e182c2a779af5b2c0da9dd18c90427a644f7e148a6253b6610747565b816010141561121257507f1eb16b057a477f4bc8f572ea6bee39561098f78f15bfb3699dcbb7bd8db61854610747565b816011141561124257507f0da2cb16a1ceaabf1c16b838f7a9e3f2a3a3088d9e0a6debaa748114620696ea610747565b816012141561127257507f24a3b3d822420b14b5d8cb6c28a574f01e98ea9e940551d2ebd75cee12649f9d610747565b81601314156112a257507f198622acbd783d1b0d9064105b1fc8e4d8889de95c4c519b3f635809fe6afc05610747565b81601414156112d257507f29d7ed391256ccc3ea596c86e933b89ff339d25ea8ddced975ae2fe30b5296d4610747565b816015141561130257507f19be59f2f0413ce78c0c3703a3a5451b1d7f39629fa33abd11548a76065b2967610747565b816016141561133257507f1ff3f61797e538b70e619310d33f2a063e7eb59104e112e95738da1254dc3453610747565b816017141561136257507f10c16ae9959cf8358980d9dd9616e48228737310a10e2b6b731c1a548f036c48610747565b816018141561139257507f0ba433a63174a90ac20992e75e3095496812b652685b5e1a2eae0b1bf4e8fcd1610747565b81601914156113c257507f019ddb9df2bc98d987d0dfeca9d2b643deafab8f7036562e627c3667266a044c610747565b81601a14156113f257507f2d3c88b23175c5a5565db928414c66d1912b11acf974b2e644caaac04739ce99610747565b81601b141561142257507f2eab55f6ae4e66e32c5189eed5c470840863445760f5ed7e7b69b2a62600f354610747565b81601c141561145157507e2df37a2642621802383cf952bf4dd1f32e05433beeb1fd41031fb7eace979d610747565b81601d141561148157507f104aeb41435db66c3e62feccc1d6f5d98d0a0ed75d1374db457cf462e3a1f427610747565b81601e14156114b157507f1f3c6fd858e9a7d4b0d1f38e256a09d81d5a5e3c963987e2d4b814cfab7c6ebb610747565b81601f14156114e157507f2c7a07d20dff79d01fecedc1134284a8d08436606c93693b67e333f671bf69cc610747565b6040805162461bcd60e51b8152602060048201526013602482015272496e646578206f7574206f6620626f756e647360681b604482015290519081900360640190fd5b7f2fe54c60d3acabf3343a35b6eba15db4821b340f76e741e2249685ed4899af6c81565b7f000000000000000000000000000000000000000000000000000000000000000081565b60016020526000908152604090205481565b600354600160201b900463ffffffff1681565b6001600160a01b03811660009081526009602052604090205481906115ea576040805162461bcd60e51b815260206004820152600a6024820152696e6f2062616c616e636560b01b604482015290519081900360640190fd5b6001600160a01b0381166000908152600a60205260409020547f0000000000000000000000000000000000000000000000000000000000000000906116309043906119bd565b1015611683576040805162461bcd60e51b815260206004820152601760248201527f6d696e207761697420626c6f636b73206e6f74206d6574000000000000000000604482015290519081900360640190fd5b6001600160a01b0382166000818152600960205260408082205490519192918381818185875af1925050503d80600081146116da576040519150601f19603f3d011682016040523d82523d6000602084013e6116df565b606091505b505090508061171f5760405162461bcd60e51b8152600401808060200182810382526025815260200180611b166025913960400191505060405180910390fd5b505050565b34156117615760405162461bcd60e51b8152600401808060200182810382526035815260200180611b6b6035913960400191505060405180910390fd5b6008546040805160016271ceb960e11b031981526001600160a01b0386811660048301529151919092169163ff1c628e91602480830192600092919082900301818387803b1580156117b257600080fd5b505af11580156117c6573d6000803e3d6000fd5b50505050505050565b60035460008054909163ffffffff600160201b909104811691811660020a1681141561182c5760405162461bcd60e51b8152600401808060200182810382526030815260200180611b3b6030913960400191505060405180910390fd5b8083600080805b60005463ffffffff90811690821610156118dd5760018516611880578392506118618163ffffffff16610ee5565b63ffffffff82166000908152600160205260409020859055915061189c565b63ffffffff811660009081526001602052604090205492508391505b6118c77f00000000000000000000000000000000000000000000000000000000000000008484610776565b9350600263ffffffff8616049450600101611833565b505060038054601e63ffffffff8083166001908101821692909206811663ffffffff199093168317845560009283526002602052604090922094909455815493860116600160201b0267ffffffff00000000199093169290921790915550909392505050565b60055434146119835760405162461bcd60e51b8152600401808060200182810382526038815260200180611a7c6038913960400191505060405180910390fd5b3360009081526009602052604090205461199d9034611a1a565b33600090815260096020908152604080832093909355600a905220439055565b600082821115611a14576040805162461bcd60e51b815260206004820152601e60248201527f536166654d6174683a207375627472616374696f6e206f766572666c6f770000604482015290519081900360640190fd5b50900390565b600082820183811015611a74576040805162461bcd60e51b815260206004820152601b60248201527f536166654d6174683a206164646974696f6e206f766572666c6f770000000000604482015290519081900360640190fd5b939250505056fe506c656173652073656e6420606d697844656e6f6d696e6174696f6e602045544820616c6f6e672077697468207472616e73616374696f6e5f72696768742073686f756c6420626520696e7369646520746865206669656c6430644e72e131a029b85045b68181585d2833e84879b9709143e1f593f000000154686520636f6d6d69746d656e7420686173206265656e207375626d69747465647061796d656e7420746f205f726563697069656e7420646964206e6f7420676f20746872754d65726b6c6520747265652069732066756c6c2e204e6f206d6f7265206c65617665732063616e2062652061646465644d6573736167652076616c756520697320737570706f73656420746f206265207a65726f20666f722045544820696e7374616e6365a2646970667358221220a73aa356fc2170e9d5cd53aaaa5c0e29ea78a59446fa62daebe23d20de0bb08664736f6c6343000706003364656e6f6d696e6174696f6e2073686f756c642062652067726561746572207468616e20305f6c6576656c732073686f756c642062652067726561746572207468616e207a65726f",
  "immutableReferences": {
    "11": [
      {
        "length": 32,
        "start": 3779
      },
      {
        "length": 32,
        "start": 5637
      }
    ],
    "207": [
      {
        "length": 32,
        "start": 1515
      },
      {
        "length": 32,
        "start": 2754
      }
    ],
    "657": [
      {
        "length": 32,
        "start": 5450
      },
      {
        "length": 32,
        "start": 6305
      }
    ]
  },
  "source": "// SPDX-License-Identifier: MIT\npragma solidity ^0.7.0;\n\nimport \"./FlexNFT.sol\";\nimport \"./FlexClub.sol\";\nimport \"@openzeppelin/contracts/math/SafeMath.sol\";\n\ncontract ETHFlexClub is FlexClub {\n    using SafeMath for uint256;\n\n    uint public immutable MINIMUM_WAIT_BLOCKS;\n\n\n    address public flexNFTContract;\n    //deposits\n    mapping(address => uint256) private _balances;\n    //deposit blocks\n    mapping(address => uint256) private _depositBlocks;\n\n    constructor(\n        IVerifier _verifier,\n        IHasher _hasher,\n        uint256 _denomination,\n        uint32 _merkleTreeHeight,\n        address _flexNFT,\n        uint _minimumWaitBlocks\n    ) FlexClub(_verifier, _hasher, _denomination, _merkleTreeHeight) {\n\n        flexNFTContract =  _flexNFT;\n        require(_minimumWaitBlocks>0, \"zero min wait blocks\");\n        MINIMUM_WAIT_BLOCKS = _minimumWaitBlocks; \n    }\n\n    function getFlexNFTAddress() view external returns (address) {\n        return address(flexNFTContract);\n    }\n\n    function _processDeposit() internal override {\n        require(msg.value == denomination, \"Please send `mixDenomination` ETH along with transaction\");\n        _balances[msg.sender] = _balances[msg.sender].add(msg.value);\n        _depositBlocks[msg.sender] = block.number;\n    }\n\n    modifier canWithdraw(address sender) {\n        require(_balances[sender] > 0, \"no balance\");\n        require(block.number.sub(_depositBlocks[sender]) >= MINIMUM_WAIT_BLOCKS, \"min wait blocks not met\");\n        _;\n    }\n\n    function _processWithdraw(address payable _recipient) canWithdraw(_recipient) internal override  {\n        (bool success, ) = _recipient.call{ value: _balances[_recipient] }(\"\");\n        require(success, \"payment to _recipient did not go thru\");\n    }\n\n    function _processMint(\n        address payable _recipient,\n        address payable _relayer,\n        uint256 _fee\n    ) internal override {\n        // sanity checks\n        require(msg.value == 0, \"Message value is supposed to be zero for ETH instance\");\n        // mint FlexNFT\n        FlexNFT(flexNFTContract).awardNFT(_recipient);\n\n        // if (_fee > 0) {\n        //   (success, ) = _relayer.call{ value: _fee }(\"\");\n        //   require(success, \"payment to _relayer did not go thru\");\n        // }\n    }\n}\n",
  "sourcePath": "/Users/mohsenahmadvand/Projects/zkflex-nft/contracts/ETHFlexClub.sol",
  "compiler": {
    "name": "solc",
    "version": "0.7.6+commit.7338295f.Emscripten.clang"
  },
  "schemaVersion": "3.3.4",
  "updatedAt": "2022-05-03T11:49:47.084Z",
  "networkType": "ethereum",
  "devdoc": {
    "kind": "dev",
    "methods": {
      "deposit(bytes32)": {
        "details": "Deposit funds into the contract. The caller must send (for ETH) or approve (for ERC20) value equal to or `denomination` of this instance.",
        "params": {
          "_commitment": "the note commitment, which is PedersenHash(nullifier + secret)"
        }
      },
      "getLastRoot()": {
        "details": "Returns the last root"
      },
      "hashLeftRight(address,bytes32,bytes32)": {
        "details": "Hash 2 tree leaves, returns MiMC(_left, _right)"
      },
      "isKnownRoot(bytes32)": {
        "details": "Whether the root is present in the root history"
      },
      "isSpent(bytes32)": {
        "details": "whether a note is already spent "
      },
      "isSpentArray(bytes32[])": {
        "details": "whether an array of notes is already spent "
      },
      "mintNFT(bytes,bytes32,bytes32,address,address,uint256,uint256)": {
        "details": "mintNFT mints flex NFT from the contract. `proof` is a zkSNARK proof data, and input is an array of circuit public inputs `input` array consists of: - merkle root of all deposits in the contract - hash of unique deposit nullifier to prevent double spends - the recipient of funds - optional fee that goes to the transaction sender (usually a relay)"
      },
      "withdraw()": {
        "details": "Withdraw a deposit from the contract. A wait time is enforced to prevent flash loans. "
      },
      "zeros(uint256)": {
        "details": "provides Zero (Empty) elements for a MiMC MerkleTree. Up to 32 levels"
      }
    },
    "version": 1
  },
  "userdoc": {
    "kind": "user",
    "methods": {},
    "version": 1
  }
}