{
  "contractName": "FlexNFT",
  "abi": [
    {
      "inputs": [
        {
          "internalType": "string",
          "name": "_userBaseURI",
          "type": "string"
        },
        {
          "internalType": "string",
          "name": "tokenName",
          "type": "string"
        },
        {
          "internalType": "string",
          "name": "tokenSymbol",
          "type": "string"
        }
      ],
      "stateMutability": "nonpayable",
      "type": "constructor"
    },
    {
      "anonymous": false,
      "inputs": [
        {
          "indexed": true,
          "internalType": "address",
          "name": "owner",
          "type": "address"
        },
        {
          "indexed": true,
          "internalType": "address",
          "name": "approved",
          "type": "address"
        },
        {
          "indexed": true,
          "internalType": "uint256",
          "name": "tokenId",
          "type": "uint256"
        }
      ],
      "name": "Approval",
      "type": "event"
    },
    {
      "anonymous": false,
      "inputs": [
        {
          "indexed": true,
          "internalType": "address",
          "name": "owner",
          "type": "address"
        },
        {
          "indexed": true,
          "internalType": "address",
          "name": "operator",
          "type": "address"
        },
        {
          "indexed": false,
          "internalType": "bool",
          "name": "approved",
          "type": "bool"
        }
      ],
      "name": "ApprovalForAll",
      "type": "event"
    },
    {
      "anonymous": false,
      "inputs": [
        {
          "indexed": true,
          "internalType": "address",
          "name": "previousOwner",
          "type": "address"
        },
        {
          "indexed": true,
          "internalType": "address",
          "name": "newOwner",
          "type": "address"
        }
      ],
      "name": "OwnershipTransferred",
      "type": "event"
    },
    {
      "anonymous": false,
      "inputs": [
        {
          "indexed": true,
          "internalType": "address",
          "name": "from",
          "type": "address"
        },
        {
          "indexed": true,
          "internalType": "address",
          "name": "to",
          "type": "address"
        },
        {
          "indexed": true,
          "internalType": "uint256",
          "name": "tokenId",
          "type": "uint256"
        }
      ],
      "name": "Transfer",
      "type": "event"
    },
    {
      "inputs": [
        {
          "internalType": "address",
          "name": "to",
          "type": "address"
        },
        {
          "internalType": "uint256",
          "name": "tokenId",
          "type": "uint256"
        }
      ],
      "name": "approve",
      "outputs": [],
      "stateMutability": "nonpayable",
      "type": "function"
    },
    {
      "inputs": [
        {
          "internalType": "address",
          "name": "owner",
          "type": "address"
        }
      ],
      "name": "balanceOf",
      "outputs": [
        {
          "internalType": "uint256",
          "name": "",
          "type": "uint256"
        }
      ],
      "stateMutability": "view",
      "type": "function",
      "constant": true
    },
    {
      "inputs": [],
      "name": "baseURI",
      "outputs": [
        {
          "internalType": "string",
          "name": "",
          "type": "string"
        }
      ],
      "stateMutability": "view",
      "type": "function",
      "constant": true
    },
    {
      "inputs": [],
      "name": "flexClubContract",
      "outputs": [
        {
          "internalType": "address",
          "name": "",
          "type": "address"
        }
      ],
      "stateMutability": "view",
      "type": "function",
      "constant": true
    },
    {
      "inputs": [
        {
          "internalType": "uint256",
          "name": "tokenId",
          "type": "uint256"
        }
      ],
      "name": "getApproved",
      "outputs": [
        {
          "internalType": "address",
          "name": "",
          "type": "address"
        }
      ],
      "stateMutability": "view",
      "type": "function",
      "constant": true
    },
    {
      "inputs": [
        {
          "internalType": "address",
          "name": "owner",
          "type": "address"
        },
        {
          "internalType": "address",
          "name": "operator",
          "type": "address"
        }
      ],
      "name": "isApprovedForAll",
      "outputs": [
        {
          "internalType": "bool",
          "name": "",
          "type": "bool"
        }
      ],
      "stateMutability": "view",
      "type": "function",
      "constant": true
    },
    {
      "inputs": [],
      "name": "isInitialized",
      "outputs": [
        {
          "internalType": "bool",
          "name": "",
          "type": "bool"
        }
      ],
      "stateMutability": "view",
      "type": "function",
      "constant": true
    },
    {
      "inputs": [],
      "name": "name",
      "outputs": [
        {
          "internalType": "string",
          "name": "",
          "type": "string"
        }
      ],
      "stateMutability": "view",
      "type": "function",
      "constant": true
    },
    {
      "inputs": [],
      "name": "owner",
      "outputs": [
        {
          "internalType": "address",
          "name": "",
          "type": "address"
        }
      ],
      "stateMutability": "view",
      "type": "function",
      "constant": true
    },
    {
      "inputs": [
        {
          "internalType": "uint256",
          "name": "tokenId",
          "type": "uint256"
        }
      ],
      "name": "ownerOf",
      "outputs": [
        {
          "internalType": "address",
          "name": "",
          "type": "address"
        }
      ],
      "stateMutability": "view",
      "type": "function",
      "constant": true
    },
    {
      "inputs": [],
      "name": "renounceOwnership",
      "outputs": [],
      "stateMutability": "nonpayable",
      "type": "function"
    },
    {
      "inputs": [
        {
          "internalType": "address",
          "name": "from",
          "type": "address"
        },
        {
          "internalType": "address",
          "name": "to",
          "type": "address"
        },
        {
          "internalType": "uint256",
          "name": "tokenId",
          "type": "uint256"
        }
      ],
      "name": "safeTransferFrom",
      "outputs": [],
      "stateMutability": "nonpayable",
      "type": "function"
    },
    {
      "inputs": [
        {
          "internalType": "address",
          "name": "from",
          "type": "address"
        },
        {
          "internalType": "address",
          "name": "to",
          "type": "address"
        },
        {
          "internalType": "uint256",
          "name": "tokenId",
          "type": "uint256"
        },
        {
          "internalType": "bytes",
          "name": "_data",
          "type": "bytes"
        }
      ],
      "name": "safeTransferFrom",
      "outputs": [],
      "stateMutability": "nonpayable",
      "type": "function"
    },
    {
      "inputs": [
        {
          "internalType": "address",
          "name": "operator",
          "type": "address"
        },
        {
          "internalType": "bool",
          "name": "approved",
          "type": "bool"
        }
      ],
      "name": "setApprovalForAll",
      "outputs": [],
      "stateMutability": "nonpayable",
      "type": "function"
    },
    {
      "inputs": [
        {
          "internalType": "bytes4",
          "name": "interfaceId",
          "type": "bytes4"
        }
      ],
      "name": "supportsInterface",
      "outputs": [
        {
          "internalType": "bool",
          "name": "",
          "type": "bool"
        }
      ],
      "stateMutability": "view",
      "type": "function",
      "constant": true
    },
    {
      "inputs": [],
      "name": "symbol",
      "outputs": [
        {
          "internalType": "string",
          "name": "",
          "type": "string"
        }
      ],
      "stateMutability": "view",
      "type": "function",
      "constant": true
    },
    {
      "inputs": [
        {
          "internalType": "uint256",
          "name": "index",
          "type": "uint256"
        }
      ],
      "name": "tokenByIndex",
      "outputs": [
        {
          "internalType": "uint256",
          "name": "",
          "type": "uint256"
        }
      ],
      "stateMutability": "view",
      "type": "function",
      "constant": true
    },
    {
      "inputs": [
        {
          "internalType": "address",
          "name": "owner",
          "type": "address"
        },
        {
          "internalType": "uint256",
          "name": "index",
          "type": "uint256"
        }
      ],
      "name": "tokenOfOwnerByIndex",
      "outputs": [
        {
          "internalType": "uint256",
          "name": "",
          "type": "uint256"
        }
      ],
      "stateMutability": "view",
      "type": "function",
      "constant": true
    },
    {
      "inputs": [
        {
          "internalType": "uint256",
          "name": "tokenId",
          "type": "uint256"
        }
      ],
      "name": "tokenURI",
      "outputs": [
        {
          "internalType": "string",
          "name": "",
          "type": "string"
        }
      ],
      "stateMutability": "view",
      "type": "function",
      "constant": true
    },
    {
      "inputs": [],
      "name": "totalSupply",
      "outputs": [
        {
          "internalType": "uint256",
          "name": "",
          "type": "uint256"
        }
      ],
      "stateMutability": "view",
      "type": "function",
      "constant": true
    },
    {
      "inputs": [
        {
          "internalType": "address",
          "name": "from",
          "type": "address"
        },
        {
          "internalType": "address",
          "name": "to",
          "type": "address"
        },
        {
          "internalType": "uint256",
          "name": "tokenId",
          "type": "uint256"
        }
      ],
      "name": "transferFrom",
      "outputs": [],
      "stateMutability": "nonpayable",
      "type": "function"
    },
    {
      "inputs": [
        {
          "internalType": "address",
          "name": "newOwner",
          "type": "address"
        }
      ],
      "name": "transferOwnership",
      "outputs": [],
      "stateMutability": "nonpayable",
      "type": "function"
    },
    {
      "inputs": [
        {
          "internalType": "address",
          "name": "_flexClubContract",
          "type": "address"
        }
      ],
      "name": "initialize",
      "outputs": [],
      "stateMutability": "nonpayable",
      "type": "function"
    },
    {
      "inputs": [
        {
          "internalType": "address",
          "name": "reciever",
          "type": "address"
        }
      ],
      "name": "awardNFT",
      "outputs": [],
      "stateMutability": "nonpayable",
      "type": "function"
    }
  ],
  "bytecode": "0x60806040523480156200001157600080fd5b50604051620022e2380380620022e2833981810160405260608110156200003757600080fd5b81019080805160405193929190846401000000008211156200005857600080fd5b9083019060208201858111156200006e57600080fd5b82516401000000008111828201881017156200008957600080fd5b82525081516020918201929091019080838360005b83811015620000b85781810151838201526020016200009e565b50505050905090810190601f168015620000e65780820380516001836020036101000a031916815260200191505b50604052602001805160405193929190846401000000008211156200010a57600080fd5b9083019060208201858111156200012057600080fd5b82516401000000008111828201881017156200013b57600080fd5b82525081516020918201929091019080838360005b838110156200016a57818101518382015260200162000150565b50505050905090810190601f168015620001985780820380516001836020036101000a031916815260200191505b5060405260200180516040519392919084640100000000821115620001bc57600080fd5b908301906020820185811115620001d257600080fd5b8251640100000000811182820188101715620001ed57600080fd5b82525081516020918201929091019080838360005b838110156200021c57818101518382015260200162000202565b50505050905090810190601f1680156200024a5780820380516001836020036101000a031916815260200191505b5060405250839150829050620002676301ffc9a760e01b6200034c565b81516200027c906006906020850190620003ee565b50805162000292906007906020840190620003ee565b50620002a56380ac58cd60e01b6200034c565b620002b7635b5e139f60e01b6200034c565b620002c963780e9d6360e01b6200034c565b5060009050620002d8620003d1565b600a80546001600160a01b0319166001600160a01b038316908117909155604051919250906000907f8be0079c531659141344cd1fd0a4f28419497f9722a3daafe3b4186f6b6457e0908290a3506001600b556200033683620003d5565b5050600d805460ff60a01b19169055506200049a565b6001600160e01b03198082161415620003ac576040805162461bcd60e51b815260206004820152601c60248201527f4552433136353a20696e76616c696420696e7465726661636520696400000000604482015290519081900360640190fd5b6001600160e01b0319166000908152602081905260409020805460ff19166001179055565b3390565b8051620003ea906009906020840190620003ee565b5050565b828054600181600116156101000203166002900490600052602060002090601f01602090048101928262000426576000855562000471565b82601f106200044157805160ff191683800117855562000471565b8280016001018555821562000471579182015b828111156200047157825182559160200191906001019062000454565b506200047f92915062000483565b5090565b5b808211156200047f576000815560010162000484565b611e3880620004aa6000396000f3fe608060405234801561001057600080fd5b50600436106101585760003560e01c80636c0360eb116100c3578063b88d4fde1161007c578063b88d4fde146103ec578063c4d66de8146104b2578063c87b56dd146104d8578063e985e9c5146104f5578063f2fde38b14610523578063ff1c628e1461054957610158565b80636c0360eb1461037857806370a0823114610380578063715018a6146103a65780638da5cb5b146103ae57806395d89b41146103b6578063a22cb465146103be57610158565b80632f745c59116101155780632f745c59146102cc57806335300923146102f8578063392e53cd1461030057806342842e0e146103085780634f6ccce71461033e5780636352211e1461035b57610158565b806301ffc9a71461015d57806306fdde0314610198578063081812fc14610215578063095ea7b31461024e57806318160ddd1461027c57806323b872dd14610296575b600080fd5b6101846004803603602081101561017357600080fd5b50356001600160e01b03191661056f565b604080519115158252519081900360200190f35b6101a0610592565b6040805160208082528351818301528351919283929083019185019080838360005b838110156101da5781810151838201526020016101c2565b50505050905090810190601f1680156102075780820380516001836020036101000a031916815260200191505b509250505060405180910390f35b6102326004803603602081101561022b57600080fd5b5035610628565b604080516001600160a01b039092168252519081900360200190f35b61027a6004803603604081101561026457600080fd5b506001600160a01b03813516906020013561068a565b005b610284610765565b60408051918252519081900360200190f35b61027a600480360360608110156102ac57600080fd5b506001600160a01b03813581169160208101359091169060400135610776565b610284600480360360408110156102e257600080fd5b506001600160a01b0381351690602001356107cd565b6102326107f8565b610184610807565b61027a6004803603606081101561031e57600080fd5b506001600160a01b03813581169160208101359091169060400135610817565b6102846004803603602081101561035457600080fd5b5035610832565b6102326004803603602081101561037157600080fd5b5035610848565b6101a0610870565b6102846004803603602081101561039657600080fd5b50356001600160a01b03166108d1565b61027a610939565b6102326109f7565b6101a0610a06565b61027a600480360360408110156103d457600080fd5b506001600160a01b0381351690602001351515610a67565b61027a6004803603608081101561040257600080fd5b6001600160a01b0382358116926020810135909116916040820135919081019060808101606082013564010000000081111561043d57600080fd5b82018360208201111561044f57600080fd5b8035906020019184600183028401116401000000008311171561047157600080fd5b91908080601f016020809104026020016040519081016040528093929190818152602001838380828437600092019190915250929550610b6c945050505050565b61027a600480360360208110156104c857600080fd5b50356001600160a01b0316610bca565b6101a0600480360360208110156104ee57600080fd5b5035610c50565b6101846004803603604081101561050b57600080fd5b506001600160a01b0381358116916020013516610ed1565b61027a6004803603602081101561053957600080fd5b50356001600160a01b0316610eff565b61027a6004803603602081101561055f57600080fd5b50356001600160a01b0316611014565b6001600160e01b0319811660009081526020819052604090205460ff165b919050565b60068054604080516020601f600260001961010060018816150201909516949094049384018190048102820181019092528281526060939092909183018282801561061e5780601f106105f35761010080835404028352916020019161061e565b820191906000526020600020905b81548152906001019060200180831161060157829003601f168201915b5050505050905090565b600061063382611144565b61066e5760405162461bcd60e51b815260040180806020018281038252602c815260200180611d56602c913960400191505060405180910390fd5b506000908152600460205260409020546001600160a01b031690565b600061069582610848565b9050806001600160a01b0316836001600160a01b031614156106e85760405162461bcd60e51b8152600401808060200182810382526021815260200180611db16021913960400191505060405180910390fd5b806001600160a01b03166106fa611151565b6001600160a01b0316148061071b575061071b81610716611151565b610ed1565b6107565760405162461bcd60e51b8152600401808060200182810382526038815260200180611ca96038913960400191505060405180910390fd5b6107608383611155565b505050565b600061077160026111c3565b905090565b610787610781611151565b826111ce565b6107c25760405162461bcd60e51b8152600401808060200182810382526031815260200180611dd26031913960400191505060405180910390fd5b610760838383611272565b6001600160a01b03821660009081526001602052604081206107ef90836112b7565b90505b92915050565b600d546001600160a01b031681565b600d54600160a01b900460ff1681565b61076083838360405180602001604052806000815250610b6c565b6000806108406002846112c3565b509392505050565b60006107f282604051806060016040528060298152602001611d0b60299139600291906112df565b60098054604080516020601f600260001961010060018816150201909516949094049384018190048102820181019092528281526060939092909183018282801561061e5780601f106105f35761010080835404028352916020019161061e565b60006001600160a01b0382166109185760405162461bcd60e51b815260040180806020018281038252602a815260200180611ce1602a913960400191505060405180910390fd5b6001600160a01b03821660009081526001602052604090206107f2906111c3565b610941611151565b6001600160a01b03166109526109f7565b6001600160a01b0316146109ad576040805162461bcd60e51b815260206004820181905260248201527f4f776e61626c653a2063616c6c6572206973206e6f7420746865206f776e6572604482015290519081900360640190fd5b600a546040516000916001600160a01b0316907f8be0079c531659141344cd1fd0a4f28419497f9722a3daafe3b4186f6b6457e0908390a3600a80546001600160a01b0319169055565b600a546001600160a01b031690565b60078054604080516020601f600260001961010060018816150201909516949094049384018190048102820181019092528281526060939092909183018282801561061e5780601f106105f35761010080835404028352916020019161061e565b610a6f611151565b6001600160a01b0316826001600160a01b03161415610ad5576040805162461bcd60e51b815260206004820152601960248201527f4552433732313a20617070726f766520746f2063616c6c657200000000000000604482015290519081900360640190fd5b8060056000610ae2611151565b6001600160a01b03908116825260208083019390935260409182016000908120918716808252919093529120805460ff191692151592909217909155610b26611151565b6001600160a01b03167f17307eab39ab6107e8899845ad3d59bd9653f200f220920489ca2b5937696c318360405180821515815260200191505060405180910390a35050565b610b7d610b77611151565b836111ce565b610bb85760405162461bcd60e51b8152600401808060200182810382526031815260200180611dd26031913960400191505060405180910390fd5b610bc4848484846112f6565b50505050565b600d54600160a01b900460ff1615610c1f576040805162461bcd60e51b8152602060048201526013602482015272185b1c9958591e481a5b9a5d1a585b1a5e9959606a1b604482015290519081900360640190fd5b600d8054600160a01b60ff60a01b19909116176001600160a01b0319166001600160a01b0392909216919091179055565b6060610c5b82611144565b610c965760405162461bcd60e51b815260040180806020018281038252602f815260200180611d82602f913960400191505060405180910390fd5b60008281526008602090815260408083208054825160026001831615610100026000190190921691909104601f810185900485028201850190935282815292909190830182828015610d295780601f10610cfe57610100808354040283529160200191610d29565b820191906000526020600020905b815481529060010190602001808311610d0c57829003601f168201915b505050505090506000610d3a610870565b9050805160001415610d4e5750905061058d565b815115610e0f5780826040516020018083805190602001908083835b60208310610d895780518252601f199092019160209182019101610d6a565b51815160209384036101000a600019018019909216911617905285519190930192850191508083835b60208310610dd15780518252601f199092019160209182019101610db2565b6001836020036101000a038019825116818451168082178552505050505050905001925050506040516020818303038152906040529250505061058d565b80610e1985611348565b6040516020018083805190602001908083835b60208310610e4b5780518252601f199092019160209182019101610e2c565b51815160209384036101000a600019018019909216911617905285519190930192850191508083835b60208310610e935780518252601f199092019160209182019101610e74565b6001836020036101000a0380198251168184511680821785525050505050509050019250505060405160208183030381529060405292505050919050565b6001600160a01b03918216600090815260056020908152604080832093909416825291909152205460ff1690565b610f07611151565b6001600160a01b0316610f186109f7565b6001600160a01b031614610f73576040805162461bcd60e51b815260206004820181905260248201527f4f776e61626c653a2063616c6c6572206973206e6f7420746865206f776e6572604482015290519081900360640190fd5b6001600160a01b038116610fb85760405162461bcd60e51b8152600401808060200182810382526026815260200180611c316026913960400191505060405180910390fd5b600a546040516001600160a01b038084169216907f8be0079c531659141344cd1fd0a4f28419497f9722a3daafe3b4186f6b6457e090600090a3600a80546001600160a01b0319166001600160a01b0392909216919091179055565b600d54600160a01b900460ff1661105d576040805162461bcd60e51b81526020600482015260086024820152671b9bdd081a5b9a5d60c21b604482015290519081900360640190fd5b600d546001600160a01b031633146110bc576040805162461bcd60e51b815260206004820181905260248201527f63616c6c2066726f6d206e6f6e2d666c65782d636c75622d636f6e7472616374604482015290519081900360640190fd5b6002600b541415611114576040805162461bcd60e51b815260206004820152601f60248201527f5265656e7472616e637947756172643a207265656e7472616e742063616c6c00604482015290519081900360640190fd5b6002600b55611123600c611423565b600061112f600c61142c565b905061113b8282611430565b50506001600b55565b60006107f260028361144e565b3390565b600081815260046020526040902080546001600160a01b0319166001600160a01b038416908117909155819061118a82610848565b6001600160a01b03167f8c5be1e5ebec7d5bd14f71427d1e84f3dd0314c0f7b2291e5b200ac8c7c3b92560405160405180910390a45050565b60006107f28261142c565b60006111d982611144565b6112145760405162461bcd60e51b815260040180806020018281038252602c815260200180611c7d602c913960400191505060405180910390fd5b600061121f83610848565b9050806001600160a01b0316846001600160a01b0316148061125a5750836001600160a01b031661124f84610628565b6001600160a01b0316145b8061126a575061126a8185610ed1565b949350505050565b6040805162461bcd60e51b81526020600482015260156024820152743737b73a3930b739b332b930b13632903a37b5b2b760591b604482015290519081900360640190fd5b60006107ef838361145a565b60008080806112d286866114be565b9097909650945050505050565b60006112ec848484611539565b90505b9392505050565b611301848484611272565b61130d84848484611603565b610bc45760405162461bcd60e51b8152600401808060200182810382526032815260200180611bff6032913960400191505060405180910390fd5b60608161136d57506040805180820190915260018152600360fc1b602082015261058d565b8160005b811561138557600101600a82049150611371565b60008167ffffffffffffffff8111801561139e57600080fd5b506040519080825280601f01601f1916602001820160405280156113c9576020820181803683370190505b50859350905060001982015b831561141a57600a840660300160f81b828280600190039350815181106113f857fe5b60200101906001600160f81b031916908160001a905350600a840493506113d5565b50949350505050565b80546001019055565b5490565b61144a82826040518060200160405280600081525061176b565b5050565b60006107ef83836117bd565b8154600090821061149c5760405162461bcd60e51b8152600401808060200182810382526022815260200180611bdd6022913960400191505060405180910390fd5b8260000182815481106114ab57fe5b9060005260206000200154905092915050565b8154600090819083106115025760405162461bcd60e51b8152600401808060200182810382526022815260200180611d346022913960400191505060405180910390fd5b600084600001848154811061151357fe5b906000526020600020906002020190508060000154816001015492509250509250929050565b600082815260018401602052604081205482816115d45760405162461bcd60e51b81526004018080602001828103825283818151815260200191508051906020019080838360005b83811015611599578181015183820152602001611581565b50505050905090810190601f1680156115c65780820380516001836020036101000a031916815260200191505b509250505060405180910390fd5b508460000160018203815481106115e757fe5b9060005260206000209060020201600101549150509392505050565b6000611617846001600160a01b03166117d5565b6116235750600161126a565b6000611731630a85bd0160e11b611638611151565b88878760405160240180856001600160a01b03168152602001846001600160a01b0316815260200183815260200180602001828103825283818151815260200191508051906020019080838360005b8381101561169f578181015183820152602001611687565b50505050905090810190601f1680156116cc5780820380516001836020036101000a031916815260200191505b5095505050505050604051602081830303815290604052906001600160e01b0319166020820180516001600160e01b038381831617835250505050604051806060016040528060328152602001611bff603291396001600160a01b03881691906117db565b9050600081806020019051602081101561174a57600080fd5b50516001600160e01b031916630a85bd0160e11b1492505050949350505050565b61177583836117ea565b6117826000848484611603565b6107605760405162461bcd60e51b8152600401808060200182810382526032815260200180611bff6032913960400191505060405180910390fd5b60009081526001919091016020526040902054151590565b3b151590565b60606112ec8484600085611918565b6001600160a01b038216611845576040805162461bcd60e51b815260206004820181905260248201527f4552433732313a206d696e7420746f20746865207a65726f2061646472657373604482015290519081900360640190fd5b61184e81611144565b156118a0576040805162461bcd60e51b815260206004820152601c60248201527f4552433732313a20746f6b656e20616c7265616479206d696e74656400000000604482015290519081900360640190fd5b6118ac60008383610760565b6001600160a01b03821660009081526001602052604090206118ce9082611a73565b506118db60028284611a7f565b5060405181906001600160a01b038416906000907fddf252ad1be2c89b69c2b068fc378daa952ba7f163c4a11628f55a4df523b3ef908290a45050565b6060824710156119595760405162461bcd60e51b8152600401808060200182810382526026815260200180611c576026913960400191505060405180910390fd5b611962856117d5565b6119b3576040805162461bcd60e51b815260206004820152601d60248201527f416464726573733a2063616c6c20746f206e6f6e2d636f6e7472616374000000604482015290519081900360640190fd5b600080866001600160a01b031685876040518082805190602001908083835b602083106119f15780518252601f1990920191602091820191016119d2565b6001836020036101000a03801982511681845116808217855250505050505090500191505060006040518083038185875af1925050503d8060008114611a53576040519150601f19603f3d011682016040523d82523d6000602084013e611a58565b606091505b5091509150611a68828286611a95565b979650505050505050565b60006107ef8383611afb565b60006112ec84846001600160a01b038516611b45565b60608315611aa45750816112ef565b825115611ab45782518084602001fd5b60405162461bcd60e51b8152602060048201818152845160248401528451859391928392604401919085019080838360008315611599578181015183820152602001611581565b6000611b0783836117bd565b611b3d575081546001818101845560008481526020808220909301849055845484825282860190935260409020919091556107f2565b5060006107f2565b600082815260018401602052604081205480611baa5750506040805180820182528381526020808201848152865460018181018955600089815284812095516002909302909501918255915190820155865486845281880190925292909120556112ef565b82856000016001830381548110611bbd57fe5b90600052602060002090600202016001018190555060009150506112ef56fe456e756d657261626c655365743a20696e646578206f7574206f6620626f756e64734552433732313a207472616e7366657220746f206e6f6e20455243373231526563656976657220696d706c656d656e7465724f776e61626c653a206e6577206f776e657220697320746865207a65726f2061646472657373416464726573733a20696e73756666696369656e742062616c616e636520666f722063616c6c4552433732313a206f70657261746f7220717565727920666f72206e6f6e6578697374656e7420746f6b656e4552433732313a20617070726f76652063616c6c6572206973206e6f74206f776e6572206e6f7220617070726f76656420666f7220616c6c4552433732313a2062616c616e636520717565727920666f7220746865207a65726f20616464726573734552433732313a206f776e657220717565727920666f72206e6f6e6578697374656e7420746f6b656e456e756d657261626c654d61703a20696e646578206f7574206f6620626f756e64734552433732313a20617070726f76656420717565727920666f72206e6f6e6578697374656e7420746f6b656e4552433732314d657461646174613a2055524920717565727920666f72206e6f6e6578697374656e7420746f6b656e4552433732313a20617070726f76616c20746f2063757272656e74206f776e65724552433732313a207472616e736665722063616c6c6572206973206e6f74206f776e6572206e6f7220617070726f766564a264697066735822122050bc6e1f34ddc7e69d6e560337b88568a43c85f343b6fdd4cde86ca78f904f6464736f6c63430007060033",
  "immutableReferences": {},
  "source": "// SPDX-License-Identifier: MIT\npragma solidity ^0.7.0;\n\nimport \"@openzeppelin/contracts/token/ERC721/ERC721.sol\";\nimport \"@openzeppelin/contracts/utils/Counters.sol\";\nimport \"@openzeppelin/contracts/utils/ReentrancyGuard.sol\";\nimport \"@openzeppelin/contracts/access/Ownable.sol\";\n\n\ninterface IFlexNFT {\n    function awardNFT(address reciever) external;\n}\n\ncontract FlexNFT is IFlexNFT, ERC721, Ownable, ReentrancyGuard {\n    using Counters for Counters.Counter;\n    Counters.Counter private _tokenIds;\n    // string public baseURI;\n    address public flexClubContract;\n    bool public isInitialized;\n    \n    constructor(\n        string memory _userBaseURI,\n        string memory tokenName,\n        string memory tokenSymbol\n    ) ERC721(tokenName, tokenSymbol) Ownable() {\n        _setBaseURI(_userBaseURI);\n        isInitialized = false;\n    }\n\n\n    function initialize(address _flexClubContract) external  {\n        require(!isInitialized, \"already initialized\");\n        isInitialized = true;\n        flexClubContract = _flexClubContract;\n    }\n    modifier isInit(){\n        require(isInitialized, \"not init\");\n        _;\n    }\n    modifier onlyFlexClubContract(){\n        require(msg.sender == flexClubContract, \"call from non-flex-club-contract\");\n        _;\n    }\n\n    // function setFlexClubContract() onlyOwner {\n    //     require(flexClubContract != address(0x), \"flexClub contract is not set\");\n    //     flexClubContract = _flexClubContract;\n    // }\n    function awardNFT(address reciever) external override isInit onlyFlexClubContract nonReentrant{\n        _tokenIds.increment();\n        uint256 newTokenId = _tokenIds.current();\n        //safeMint can reenter!!\n        _safeMint(reciever, newTokenId);\n    }\n\n    function _transfer(address from, address to, uint256 tokenId) internal override {\n        //FlexNFT tokens are non-transferable \n        revert(\"nontransferable token\");\n    }\n}\n\n",
  "sourcePath": "/Users/mohsenahmadvand/Projects/zkflex-nft/contracts/FlexNFT.sol",
  "compiler": {
    "name": "solc",
    "version": "0.7.6+commit.7338295f.Emscripten.clang"
  },
  "schemaVersion": "3.3.4",
  "updatedAt": "2022-05-03T11:49:47.087Z",
  "networkType": "ethereum",
  "devdoc": {
    "kind": "dev",
    "methods": {
      "approve(address,uint256)": {
        "details": "See {IERC721-approve}."
      },
      "balanceOf(address)": {
        "details": "See {IERC721-balanceOf}."
      },
      "baseURI()": {
        "details": "Returns the base URI set via {_setBaseURI}. This will be automatically added as a prefix in {tokenURI} to each token's URI, or to the token ID if no specific URI is set for that token ID."
      },
      "getApproved(uint256)": {
        "details": "See {IERC721-getApproved}."
      },
      "isApprovedForAll(address,address)": {
        "details": "See {IERC721-isApprovedForAll}."
      },
      "name()": {
        "details": "See {IERC721Metadata-name}."
      },
      "owner()": {
        "details": "Returns the address of the current owner."
      },
      "ownerOf(uint256)": {
        "details": "See {IERC721-ownerOf}."
      },
      "renounceOwnership()": {
        "details": "Leaves the contract without owner. It will not be possible to call `onlyOwner` functions anymore. Can only be called by the current owner. NOTE: Renouncing ownership will leave the contract without an owner, thereby removing any functionality that is only available to the owner."
      },
      "safeTransferFrom(address,address,uint256)": {
        "details": "See {IERC721-safeTransferFrom}."
      },
      "safeTransferFrom(address,address,uint256,bytes)": {
        "details": "See {IERC721-safeTransferFrom}."
      },
      "setApprovalForAll(address,bool)": {
        "details": "See {IERC721-setApprovalForAll}."
      },
      "supportsInterface(bytes4)": {
        "details": "See {IERC165-supportsInterface}. Time complexity O(1), guaranteed to always use less than 30 000 gas."
      },
      "symbol()": {
        "details": "See {IERC721Metadata-symbol}."
      },
      "tokenByIndex(uint256)": {
        "details": "See {IERC721Enumerable-tokenByIndex}."
      },
      "tokenOfOwnerByIndex(address,uint256)": {
        "details": "See {IERC721Enumerable-tokenOfOwnerByIndex}."
      },
      "tokenURI(uint256)": {
        "details": "See {IERC721Metadata-tokenURI}."
      },
      "totalSupply()": {
        "details": "See {IERC721Enumerable-totalSupply}."
      },
      "transferFrom(address,address,uint256)": {
        "details": "See {IERC721-transferFrom}."
      },
      "transferOwnership(address)": {
        "details": "Transfers ownership of the contract to a new account (`newOwner`). Can only be called by the current owner."
      }
    },
    "version": 1
  },
  "userdoc": {
    "kind": "user",
    "methods": {},
    "version": 1
  }
}